{
  "address": "0x84F6Fb4807F8167B5ED16FC24ea3a67568032D5e",
  "abi": [
    {
      "inputs": [
        {
          "internalType": "address",
          "name": "_treasury",
          "type": "address"
        },
        {
          "internalType": "address",
          "name": "_uniswapRouter",
          "type": "address"
        }
      ],
      "stateMutability": "nonpayable",
      "type": "constructor"
    },
    {
      "inputs": [
        {
          "internalType": "address",
          "name": "owner",
          "type": "address"
        }
      ],
      "name": "OwnableInvalidOwner",
      "type": "error"
    },
    {
      "inputs": [
        {
          "internalType": "address",
          "name": "account",
          "type": "address"
        }
      ],
      "name": "OwnableUnauthorizedAccount",
      "type": "error"
    },
    {
      "inputs": [],
      "name": "ReentrancyGuardReentrantCall",
      "type": "error"
    },
    {
      "anonymous": false,
      "inputs": [
        {
          "indexed": false,
          "internalType": "uint256",
          "name": "basePrice",
          "type": "uint256"
        },
        {
          "indexed": false,
          "internalType": "uint256",
          "name": "slope",
          "type": "uint256"
        },
        {
          "indexed": false,
          "internalType": "uint256",
          "name": "targetRaise",
          "type": "uint256"
        }
      ],
      "name": "DefaultParametersUpdated",
      "type": "event"
    },
    {
      "anonymous": false,
      "inputs": [
        {
          "indexed": true,
          "internalType": "address",
          "name": "token",
          "type": "address"
        },
        {
          "indexed": false,
          "internalType": "uint256",
          "name": "amount",
          "type": "uint256"
        },
        {
          "indexed": true,
          "internalType": "address",
          "name": "recipient",
          "type": "address"
        }
      ],
      "name": "EmergencyWithdrawal",
      "type": "event"
    },
    {
      "anonymous": false,
      "inputs": [
        {
          "indexed": true,
          "internalType": "address",
          "name": "newGovernance",
          "type": "address"
        }
      ],
      "name": "GovernanceUpdated",
      "type": "event"
    },
    {
      "anonymous": false,
      "inputs": [
        {
          "indexed": true,
          "internalType": "uint256",
          "name": "marketId",
          "type": "uint256"
        },
        {
          "indexed": false,
          "internalType": "uint256",
          "name": "ethAmount",
          "type": "uint256"
        },
        {
          "indexed": false,
          "internalType": "uint256",
          "name": "tokenAmount",
          "type": "uint256"
        }
      ],
      "name": "GraduatedMarketRescued",
      "type": "event"
    },
    {
      "anonymous": false,
      "inputs": [
        {
          "indexed": true,
          "internalType": "uint256",
          "name": "marketId",
          "type": "uint256"
        },
        {
          "indexed": true,
          "internalType": "address",
          "name": "lpPair",
          "type": "address"
        },
        {
          "indexed": false,
          "internalType": "uint256",
          "name": "tokenAmount",
          "type": "uint256"
        },
        {
          "indexed": false,
          "internalType": "uint256",
          "name": "ethAmount",
          "type": "uint256"
        },
        {
          "indexed": false,
          "internalType": "uint256",
          "name": "liquidity",
          "type": "uint256"
        }
      ],
      "name": "LiquidityAdded",
      "type": "event"
    },
    {
      "anonymous": false,
      "inputs": [
        {
          "indexed": true,
          "internalType": "uint256",
          "name": "marketId",
          "type": "uint256"
        },
        {
          "indexed": true,
          "internalType": "address",
          "name": "tokenAddress",
          "type": "address"
        },
        {
          "indexed": false,
          "internalType": "address[]",
          "name": "quorumAgents",
          "type": "address[]"
        },
        {
          "indexed": false,
          "internalType": "string",
          "name": "thesis",
          "type": "string"
        }
      ],
      "name": "MarketCreated",
      "type": "event"
    },
    {
      "anonymous": false,
      "inputs": [
        {
          "indexed": true,
          "internalType": "uint256",
          "name": "marketId",
          "type": "uint256"
        },
        {
          "indexed": false,
          "internalType": "uint256",
          "name": "totalRaised",
          "type": "uint256"
        },
        {
          "indexed": false,
          "internalType": "address",
          "name": "lpPair",
          "type": "address"
        }
      ],
      "name": "MarketGraduated",
      "type": "event"
    },
    {
      "anonymous": false,
      "inputs": [
        {
          "indexed": true,
          "internalType": "uint256",
          "name": "marketId",
          "type": "uint256"
        }
      ],
      "name": "MarketPaused",
      "type": "event"
    },
    {
      "anonymous": false,
      "inputs": [
        {
          "indexed": true,
          "internalType": "uint256",
          "name": "marketId",
          "type": "uint256"
        }
      ],
      "name": "MarketUnpaused",
      "type": "event"
    },
    {
      "anonymous": false,
      "inputs": [
        {
          "indexed": true,
          "internalType": "address",
          "name": "previousOwner",
          "type": "address"
        },
        {
          "indexed": true,
          "internalType": "address",
          "name": "newOwner",
          "type": "address"
        }
      ],
      "name": "OwnershipTransferred",
      "type": "event"
    },
    {
      "anonymous": false,
      "inputs": [
        {
          "indexed": true,
          "internalType": "uint256",
          "name": "marketId",
          "type": "uint256"
        }
      ],
      "name": "PauseCancelled",
      "type": "event"
    },
    {
      "anonymous": false,
      "inputs": [
        {
          "indexed": true,
          "internalType": "uint256",
          "name": "marketId",
          "type": "uint256"
        },
        {
          "indexed": false,
          "internalType": "uint256",
          "name": "executeTime",
          "type": "uint256"
        }
      ],
      "name": "PauseRequested",
      "type": "event"
    },
    {
      "anonymous": false,
      "inputs": [
        {
          "indexed": true,
          "internalType": "uint256",
          "name": "marketId",
          "type": "uint256"
        },
        {
          "indexed": false,
          "internalType": "uint256",
          "name": "feeAmount",
          "type": "uint256"
        }
      ],
      "name": "ProtocolFeeCollected",
      "type": "event"
    },
    {
      "anonymous": false,
      "inputs": [
        {
          "indexed": true,
          "internalType": "uint256",
          "name": "marketId",
          "type": "uint256"
        },
        {
          "indexed": true,
          "internalType": "address",
          "name": "buyer",
          "type": "address"
        },
        {
          "indexed": false,
          "internalType": "uint256",
          "name": "ethAmount",
          "type": "uint256"
        },
        {
          "indexed": false,
          "internalType": "uint256",
          "name": "tokenAmount",
          "type": "uint256"
        },
        {
          "indexed": false,
          "internalType": "uint256",
          "name": "newPrice",
          "type": "uint256"
        }
      ],
      "name": "TokensPurchased",
      "type": "event"
    },
    {
      "anonymous": false,
      "inputs": [
        {
          "indexed": true,
          "internalType": "uint256",
          "name": "marketId",
          "type": "uint256"
        },
        {
          "indexed": true,
          "internalType": "address",
          "name": "seller",
          "type": "address"
        },
        {
          "indexed": false,
          "internalType": "uint256",
          "name": "tokenAmount",
          "type": "uint256"
        },
        {
          "indexed": false,
          "internalType": "uint256",
          "name": "ethAmount",
          "type": "uint256"
        }
      ],
      "name": "TokensSold",
      "type": "event"
    },
    {
      "anonymous": false,
      "inputs": [
        {
          "indexed": true,
          "internalType": "address",
          "name": "newRouter",
          "type": "address"
        }
      ],
      "name": "UniswapRouterUpdated",
      "type": "event"
    },
    {
      "inputs": [],
      "name": "BPS_DENOMINATOR",
      "outputs": [
        {
          "internalType": "uint256",
          "name": "",
          "type": "uint256"
        }
      ],
      "stateMutability": "view",
      "type": "function"
    },
    {
      "inputs": [],
      "name": "CURVE_ALLOCATION_BPS",
      "outputs": [
        {
          "internalType": "uint256",
          "name": "",
          "type": "uint256"
        }
      ],
      "stateMutability": "view",
      "type": "function"
    },
    {
      "inputs": [],
      "name": "MIN_PURCHASE",
      "outputs": [
        {
          "internalType": "uint256",
          "name": "",
          "type": "uint256"
        }
      ],
      "stateMutability": "view",
      "type": "function"
    },
    {
      "inputs": [],
      "name": "PAUSE_DELAY",
      "outputs": [
        {
          "internalType": "uint256",
          "name": "",
          "type": "uint256"
        }
      ],
      "stateMutability": "view",
      "type": "function"
    },
    {
      "inputs": [],
      "name": "QUORUM_ALLOCATION_BPS",
      "outputs": [
        {
          "internalType": "uint256",
          "name": "",
          "type": "uint256"
        }
      ],
      "stateMutability": "view",
      "type": "function"
    },
    {
      "inputs": [],
      "name": "TOTAL_SUPPLY",
      "outputs": [
        {
          "internalType": "uint256",
          "name": "",
          "type": "uint256"
        }
      ],
      "stateMutability": "view",
      "type": "function"
    },
    {
      "inputs": [],
      "name": "TREASURY_ALLOCATION_BPS",
      "outputs": [
        {
          "internalType": "uint256",
          "name": "",
          "type": "uint256"
        }
      ],
      "stateMutability": "view",
      "type": "function"
    },
    {
      "inputs": [
        {
          "internalType": "uint256",
          "name": "marketId",
          "type": "uint256"
        },
        {
          "internalType": "uint256",
          "name": "minTokensOut",
          "type": "uint256"
        }
      ],
      "name": "buy",
      "outputs": [],
      "stateMutability": "payable",
      "type": "function"
    },
    {
      "inputs": [
        {
          "internalType": "uint256",
          "name": "marketId",
          "type": "uint256"
        },
        {
          "internalType": "uint256",
          "name": "ethAmount",
          "type": "uint256"
        }
      ],
      "name": "calculatePurchaseReturn",
      "outputs": [
        {
          "internalType": "uint256",
          "name": "",
          "type": "uint256"
        }
      ],
      "stateMutability": "view",
      "type": "function"
    },
    {
      "inputs": [
        {
          "internalType": "uint256",
          "name": "marketId",
          "type": "uint256"
        },
        {
          "internalType": "uint256",
          "name": "tokenAmount",
          "type": "uint256"
        }
      ],
      "name": "calculateSaleReturn",
      "outputs": [
        {
          "internalType": "uint256",
          "name": "",
          "type": "uint256"
        }
      ],
      "stateMutability": "view",
      "type": "function"
    },
    {
      "inputs": [
        {
          "internalType": "uint256",
          "name": "marketId",
          "type": "uint256"
        }
      ],
      "name": "cancelPause",
      "outputs": [],
      "stateMutability": "nonpayable",
      "type": "function"
    },
    {
      "inputs": [
        {
          "internalType": "address[]",
          "name": "quorumAgents",
          "type": "address[]"
        },
        {
          "internalType": "uint256[]",
          "name": "weights",
          "type": "uint256[]"
        },
        {
          "internalType": "string",
          "name": "name",
          "type": "string"
        },
        {
          "internalType": "string",
          "name": "symbol",
          "type": "string"
        },
        {
          "internalType": "string",
          "name": "thesis",
          "type": "string"
        }
      ],
      "name": "createMarket",
      "outputs": [
        {
          "internalType": "uint256",
          "name": "marketId",
          "type": "uint256"
        }
      ],
      "stateMutability": "nonpayable",
      "type": "function"
    },
    {
      "inputs": [],
      "name": "defaultBasePrice",
      "outputs": [
        {
          "internalType": "uint256",
          "name": "",
          "type": "uint256"
        }
      ],
      "stateMutability": "view",
      "type": "function"
    },
    {
      "inputs": [],
      "name": "defaultSlope",
      "outputs": [
        {
          "internalType": "uint256",
          "name": "",
          "type": "uint256"
        }
      ],
      "stateMutability": "view",
      "type": "function"
    },
    {
      "inputs": [],
      "name": "defaultTargetRaise",
      "outputs": [
        {
          "internalType": "uint256",
          "name": "",
          "type": "uint256"
        }
      ],
      "stateMutability": "view",
      "type": "function"
    },
    {
      "inputs": [
        {
          "internalType": "uint256",
          "name": "marketId",
          "type": "uint256"
        }
      ],
      "name": "emergencyPause",
      "outputs": [],
      "stateMutability": "nonpayable",
      "type": "function"
    },
    {
      "inputs": [
        {
          "internalType": "uint256",
          "name": "amount",
          "type": "uint256"
        }
      ],
      "name": "emergencyWithdrawETH",
      "outputs": [],
      "stateMutability": "nonpayable",
      "type": "function"
    },
    {
      "inputs": [
        {
          "internalType": "address",
          "name": "token",
          "type": "address"
        },
        {
          "internalType": "uint256",
          "name": "amount",
          "type": "uint256"
        }
      ],
      "name": "emergencyWithdrawTokens",
      "outputs": [],
      "stateMutability": "nonpayable",
      "type": "function"
    },
    {
      "inputs": [
        {
          "internalType": "uint256",
          "name": "marketId",
          "type": "uint256"
        }
      ],
      "name": "executePause",
      "outputs": [],
      "stateMutability": "nonpayable",
      "type": "function"
    },
    {
      "inputs": [
        {
          "internalType": "uint256",
          "name": "marketId",
          "type": "uint256"
        }
      ],
      "name": "forceGraduate",
      "outputs": [],
      "stateMutability": "nonpayable",
      "type": "function"
    },
    {
      "inputs": [
        {
          "internalType": "uint256",
          "name": "marketId",
          "type": "uint256"
        }
      ],
      "name": "getCurrentPrice",
      "outputs": [
        {
          "internalType": "uint256",
          "name": "",
          "type": "uint256"
        }
      ],
      "stateMutability": "view",
      "type": "function"
    },
    {
      "inputs": [
        {
          "internalType": "uint256",
          "name": "marketId",
          "type": "uint256"
        }
      ],
      "name": "getMarket",
      "outputs": [
        {
          "internalType": "address",
          "name": "tokenAddress",
          "type": "address"
        },
        {
          "internalType": "address",
          "name": "lpPair",
          "type": "address"
        },
        {
          "internalType": "address[]",
          "name": "quorumAgents",
          "type": "address[]"
        },
        {
          "internalType": "uint256[]",
          "name": "agentWeights",
          "type": "uint256[]"
        },
        {
          "internalType": "uint256",
          "name": "targetRaise",
          "type": "uint256"
        },
        {
          "internalType": "uint256",
          "name": "currentRaised",
          "type": "uint256"
        },
        {
          "internalType": "uint256",
          "name": "tokensSold",
          "type": "uint256"
        },
        {
          "internalType": "bool",
          "name": "graduated",
          "type": "bool"
        },
        {
          "internalType": "bool",
          "name": "active",
          "type": "bool"
        },
        {
          "internalType": "string",
          "name": "thesis",
          "type": "string"
        }
      ],
      "stateMutability": "view",
      "type": "function"
    },
    {
      "inputs": [],
      "name": "governance",
      "outputs": [
        {
          "internalType": "address",
          "name": "",
          "type": "address"
        }
      ],
      "stateMutability": "view",
      "type": "function"
    },
    {
      "inputs": [],
      "name": "marketCount",
      "outputs": [
        {
          "internalType": "uint256",
          "name": "",
          "type": "uint256"
        }
      ],
      "stateMutability": "view",
      "type": "function"
    },
    {
      "inputs": [
        {
          "internalType": "uint256",
          "name": "",
          "type": "uint256"
        }
      ],
      "name": "markets",
      "outputs": [
        {
          "internalType": "address",
          "name": "tokenAddress",
          "type": "address"
        },
        {
          "internalType": "address",
          "name": "lpPair",
          "type": "address"
        },
        {
          "internalType": "uint256",
          "name": "targetRaise",
          "type": "uint256"
        },
        {
          "internalType": "uint256",
          "name": "currentRaised",
          "type": "uint256"
        },
        {
          "internalType": "uint256",
          "name": "tokensSold",
          "type": "uint256"
        },
        {
          "internalType": "uint256",
          "name": "basePrice",
          "type": "uint256"
        },
        {
          "internalType": "uint256",
          "name": "slope",
          "type": "uint256"
        },
        {
          "internalType": "bool",
          "name": "graduated",
          "type": "bool"
        },
        {
          "internalType": "bool",
          "name": "active",
          "type": "bool"
        },
        {
          "internalType": "string",
          "name": "thesis",
          "type": "string"
        }
      ],
      "stateMutability": "view",
      "type": "function"
    },
    {
      "inputs": [],
      "name": "owner",
      "outputs": [
        {
          "internalType": "address",
          "name": "",
          "type": "address"
        }
      ],
      "stateMutability": "view",
      "type": "function"
    },
    {
      "inputs": [
        {
          "internalType": "uint256",
          "name": "",
          "type": "uint256"
        }
      ],
      "name": "pendingPause",
      "outputs": [
        {
          "internalType": "uint256",
          "name": "",
          "type": "uint256"
        }
      ],
      "stateMutability": "view",
      "type": "function"
    },
    {
      "inputs": [],
      "name": "protocolFeeBps",
      "outputs": [
        {
          "internalType": "uint256",
          "name": "",
          "type": "uint256"
        }
      ],
      "stateMutability": "view",
      "type": "function"
    },
    {
      "inputs": [],
      "name": "protocolTreasury",
      "outputs": [
        {
          "internalType": "address",
          "name": "",
          "type": "address"
        }
      ],
      "stateMutability": "view",
      "type": "function"
    },
    {
      "inputs": [],
      "name": "renounceOwnership",
      "outputs": [],
      "stateMutability": "nonpayable",
      "type": "function"
    },
    {
      "inputs": [
        {
          "internalType": "uint256",
          "name": "marketId",
          "type": "uint256"
        }
      ],
      "name": "requestPause",
      "outputs": [],
      "stateMutability": "nonpayable",
      "type": "function"
    },
    {
      "inputs": [
        {
          "internalType": "uint256",
          "name": "marketId",
          "type": "uint256"
        }
      ],
      "name": "rescueGraduatedMarketFunds",
      "outputs": [],
      "stateMutability": "nonpayable",
      "type": "function"
    },
    {
      "inputs": [
        {
          "internalType": "uint256",
          "name": "marketId",
          "type": "uint256"
        },
        {
          "internalType": "uint256",
          "name": "tokenAmount",
          "type": "uint256"
        },
        {
          "internalType": "uint256",
          "name": "minEthOut",
          "type": "uint256"
        }
      ],
      "name": "sell",
      "outputs": [],
      "stateMutability": "nonpayable",
      "type": "function"
    },
    {
      "inputs": [
        {
          "internalType": "uint256",
          "name": "_basePrice",
          "type": "uint256"
        },
        {
          "internalType": "uint256",
          "name": "_slope",
          "type": "uint256"
        },
        {
          "internalType": "uint256",
          "name": "_targetRaise",
          "type": "uint256"
        }
      ],
      "name": "setDefaultParameters",
      "outputs": [],
      "stateMutability": "nonpayable",
      "type": "function"
    },
    {
      "inputs": [
        {
          "internalType": "address",
          "name": "_governance",
          "type": "address"
        }
      ],
      "name": "setGovernance",
      "outputs": [],
      "stateMutability": "nonpayable",
      "type": "function"
    },
    {
      "inputs": [
        {
          "internalType": "uint256",
          "name": "_feeBps",
          "type": "uint256"
        }
      ],
      "name": "setProtocolFeeBps",
      "outputs": [],
      "stateMutability": "nonpayable",
      "type": "function"
    },
    {
      "inputs": [
        {
          "internalType": "address",
          "name": "_treasury",
          "type": "address"
        }
      ],
      "name": "setProtocolTreasury",
      "outputs": [],
      "stateMutability": "nonpayable",
      "type": "function"
    },
    {
      "inputs": [
        {
          "internalType": "address",
          "name": "_router",
          "type": "address"
        }
      ],
      "name": "setUniswapRouter",
      "outputs": [],
      "stateMutability": "nonpayable",
      "type": "function"
    },
    {
      "inputs": [
        {
          "internalType": "address",
          "name": "newOwner",
          "type": "address"
        }
      ],
      "name": "transferOwnership",
      "outputs": [],
      "stateMutability": "nonpayable",
      "type": "function"
    },
    {
      "inputs": [],
      "name": "uniswapRouter",
      "outputs": [
        {
          "internalType": "contract IUniswapV2Router02",
          "name": "",
          "type": "address"
        }
      ],
      "stateMutability": "view",
      "type": "function"
    },
    {
      "inputs": [
        {
          "internalType": "uint256",
          "name": "marketId",
          "type": "uint256"
        }
      ],
      "name": "unpause",
      "outputs": [],
      "stateMutability": "nonpayable",
      "type": "function"
    },
    {
      "stateMutability": "payable",
      "type": "receive"
    }
  ],
  "transactionHash": "0x0c54cbd5313fea8b9dd21f70cb8aa0279a705adc43d17c85f093e7a3b7eb575b",
  "args": [
    "0x79071295C5B70b6a2e84D2c2c1de6e529c23bc89",
    "0x0000000000000000000000000000000000000000"
  ],
  "numDeployments": 1,
  "solcInputHash": "ff809cd498a2240873bfc46d829e0ef0",
  "bytecode": "0x6080346200012257601f62003c6938819003918201601f19168301916001600160401b038311848410176200012757808492604094855283398101031262000122576200005a602062000052836200013d565b92016200013d565b3315620001095760008054336001600160a01b0319808316821784556040519590946001600160a01b03949093859391908416907f8be0079c531659141344cd1fd0a4f28419497f9722a3daafe3b4186f6b6457e09080a3600180556032600555655af3107a40006006556377359400600755678ac7230489e8000060085516836004541617600455169081620000f9575b613b168381620001538239f35b600a541617600a553880620000ec565b604051631e4fbdf760e01b815260006004820152602490fd5b600080fd5b634e487b7160e01b600052604160045260246000fd5b51906001600160a01b0382168203620001225756fe608060405260043610156200001d575b36156200001b57600080fd5b005b60003560e01c8063071f852114620022225780630c5a61f814620021cd57806316a8dc9714620020d657806320677f3414620020b657806322b9990d146200209757806327811d301462001fa35780632d2ec4b51462001f8457806335659fb81462001f6457806341489fe31462001f4457806342d74cfe1462001f245780635aa6e6751462001ef95780636b792c4b1462001df3578063715018a61462001d96578063735de9f71462001d6b5780637e2ab71c1462001cf9578063803db96d1462001cce5780638da5cb5b1462001ca3578063902d55a51462001c7c578063917bb9981462001a65578063998cb0f81462001198578063a56550791462001178578063a87068e514620010a9578063ab033ea91462001033578063ace4e8241462001009578063ad3fbe301462000f7a578063ad66aa721462000f4c578063b1283e771462000e91578063bea9849e1462000e1b578063c0417e581462000db8578063c55d0f561462000d8e578063c5df2dfa1462000c95578063cd7d266f1462000a08578063d3c9727c1462000823578063d439390c14620007ff578063d6febde814620005a1578063e1a452181462000582578063eb44fdd314620003a1578063ec9790821462000381578063f2fde38b14620002f1578063f4c1fa0214620002d25763fabc1cbc036200000f5734620002cd576020366003190112620002cd576004356200022e62002460565b80600052600260205260ff60096040600020015460081c166200029057806000526002602052600960406000200161010061ff00198254161790557f50d4ab3612146ef68ce1895760d5088eeab86987e18ffce6f2efd3d683ae6d9f600080a2005b60405162461bcd60e51b81526020600482015260156024820152744d61726b657420616c72656164792061637469766560581b6044820152606490fd5b600080fd5b34620002cd576000366003190112620002cd576020604051610bb88152f35b34620002cd576020366003190112620002cd576200030e62002263565b6200031862002460565b6001600160a01b039081169081156200036857600054826001600160601b0360a01b821617600055167f8be0079c531659141344cd1fd0a4f28419497f9722a3daafe3b4186f6b6457e0600080a3005b604051631e4fbdf760e01b815260006004820152602490fd5b34620002cd576000366003190112620002cd576020600354604051908152f35b34620002cd576020366003190112620002cd576004356000526002602052604060002060018060a01b038154169060018060a01b03600182015416906002810160048201546005830154600684015491600985015493604051958687602084549283815201809460005260206000209260005b8181106200055f5750506200042c925003886200234a565b60405198899182602060038301549c8d815201809c6003840160005260206000209060005b81811062000545575050509162000471600a92620004789403866200234a565b016200236c565b976040519961014090818c01938c5260208c015260408b0152518091526101608901929060005b818110620005255750505060209088830360608a0152519182815201979060005b8181106200050e5788806200050a8c8b60ff8c8c8c8c608089015260a088015260c0870152818116151560e087015260081c1615156101008501528382036101208501526200241e565b0390f35b82518a526020998a019990920191600101620004c0565b82516001600160a01b03168552602094850194909201916001016200049f565b825484528794506020909301926001928301920162000451565b84546001600160a01b031683526001948501948c94506020909301920162000414565b34620002cd576000366003190112620002cd5760206040516127108152f35b620005ac366200224c565b620005b662002766565b81600052602060028152604060002091620005e960ff6009850154620005e1828260081c16620025bc565b1615620025fd565b66038d7ea4c680003410620007c1576127106200060960055434620024be565b049062000617823462002656565b916200063f62000628848762002849565b926200063684151562002664565b8310156200269f565b6200065060058601938454620026e0565b83556006850162000663838254620026e0565b9055845460405163a9059cbb60e01b815233600482015260248101849052946001600160a01b039181908790604490829060009087165af1928315620007b557600496899462000781575b50806200072e575b5050507f75f77114b0b88da95841d46a17da78c266e2c6cfbeafaf83dc456ad9669c33c362000707620006e983620027cd565b60408051348152602081019690965285015233939081906060820190565b0390a35491015411156200071c575b60018055005b620007279062002b32565b8062000716565b620007706000808080857f8b33e5d3f2111dbe0069093632772b6795dfdaa7282cb1d39582c0ca4127edbb988d54165af162000769620026ee565b5062002723565b604051908152a284868080620006b6565b620007a590833d8511620007ad575b6200079c81836200234a565b8101906200252f565b5089620006ae565b503d62000790565b6040513d6000823e3d90fd5b60405162461bcd60e51b815260048101839052601660248201527542656c6f77206d696e696d756d20707572636861736560501b6044820152606490fd5b34620002cd576000366003190112620002cd57602060405166038d7ea4c680008152f35b34620002cd5762000834366200228f565b6200084192919262002766565b8160005260206002815260406000206200086b60ff6009830154620005e1828260081c16620025bc565b6200087885151562002664565b620008848582620029ba565b90600581019081548311620009ca57600090612710620008a760055486620024be565b0492620008c3620008b9858762002656565b978810156200269f565b60018060a01b0394868684541660648c60405197889384926323b872dd60e01b845233600485015230602485015260448401525af1908115620007b5576006946200091792620009a8575b50825462002656565b9055016200092787825462002656565b905562000947600080808088335af162000940620026ee565b506200278a565b8062000985575b50506040519384528301527fb3b5018d26b7b3764106321edeb54ab6d90aee3598f78eae1da7a2ce084e9aa960403393a360018055005b600080808093620009a095600454165af162000769620026ee565b84806200094e565b620009c290893d8b11620007ad576200079c81836200234a565b508b6200090e565b60405162461bcd60e51b8152600481018590526016602482015275496e73756666696369656e74206c697175696469747960501b6044820152606490fd5b34620002cd57602080600319360112620002cd576004359062000a2a62002460565b816000526002815260406000209060ff6009830154161562000c5a5760018201546001600160a01b039190821662000c21578160058401938454948515158062000c16575b62000bb0575b505416604051926370a0823160e01b84523060048501528284602481855afa938415620007b55760009462000b7b575b508362000adf575b857fa44bb57df4a8cef44a8fa569f5d1a15b9e1f8d26032c0f13ca51518c9366b9e060408787878351928352820152a2005b6004805460405163a9059cbb60e01b815292166001600160a01b031690820152602481018490529391929083908590816000816044810103925af1928315620007b5577fa44bb57df4a8cef44a8fa569f5d1a15b9e1f8d26032c0f13ca51518c9366b9e09460409462000b59575b50919381935062000aad565b62000b7390823d8411620007ad576200079c81836200234a565b508662000b4d565b9093508281813d831162000ba8575b62000b9681836200234a565b81010312620002cd5751928662000aa5565b503d62000b8a565b60009192505560008080808787600454165af162000bcd620026ee565b501562000bdd5782908662000a75565b60405162461bcd60e51b8152600481018390526011602482015270115512081c995cd8dd594819985a5b1959607a1b6044820152606490fd5b508547101562000a6f565b6064906040519062461bcd60e51b825260048201526012602482015271131408185b1c9958591e4818dc99585d195960721b6044820152fd5b6064906040519062461bcd60e51b82526004820152601460248201527313585c9ad95d081b9bdd0819dc98591d585d195960621b6044820152fd5b34620002cd57602080600319360112620002cd576004359062000cb762002460565b816000526002815262000cd860ff60096040600020015460081c16620025bc565b81600052600b815260406000205462000d4a576201518042019081421162000d34577f9be0f852eebe16d2dfd0a8401f4b7a35086ca10952f979f8ed829a541594e9589183600052600b825280604060002055604051908152a2005b634e487b7160e01b600052601160045260246000fd5b6064906040519062461bcd60e51b82526004820152601760248201527f506175736520616c7265616479207265717565737465640000000000000000006044820152fd5b34620002cd576020366003190112620002cd57602062000db0600435620027cd565b604051908152f35b34620002cd576020366003190112620002cd5760043562000dd862002460565b6101f4811162000de757600555005b60405162461bcd60e51b815260206004820152600c60248201526b08ccaca40e8dede40d0d2ced60a31b6044820152606490fd5b34620002cd576020366003190112620002cd5762000e3862002263565b62000e4262002460565b6001600160a01b031662000e588115156200280d565b600a80546001600160a01b031916821790557f455a5e52b7c01aa52d717db42e17b6610b0c2c96560c85b7e5adcdd254bfc17c600080a2005b34620002cd576020366003190112620002cd576004356000526002602052604060002060018060a01b036200050a81835416916001840154169260ff6004820154916005810154600682015460078301549060088401549262000efc600a600987015496016200236c565b966040519a8b9a8b5260208b015260408a01526060890152608088015260a087015260c0860152818116151560e086015260081c161515610100840152610140806101208501528301906200241e565b34620002cd576020366003190112620002cd57600435600052600b6020526020604060002054604051908152f35b34620002cd576020366003190112620002cd5760043562000f9a62002460565b80600052600260205262000fbc60ff60096040600020015460081c16620025bc565b806000526002602052600960406000200161ff00198154169055600b602052600060408120557f0b939016779c3297135b58aed6d343cf103faf818ea07a7c5f87b03a9bd87297600080a2005b34620002cd57602062000db062001020366200224c565b9060005260028352604060002062002849565b34620002cd576020366003190112620002cd576200105062002263565b6200105a62002460565b6001600160a01b0316620010708115156200280d565b600980546001600160a01b031916821790557f9d3e522e1e47a2f6009739342b9cc7b252a1888154e843ab55ee1c81745795ab600080a2005b34620002cd576020366003190112620002cd57600954600435906001600160a01b03163303620011415780600052600260205260ff600960406000200154620010f7828260081c16620025bc565b1662001108576200001b9062002b32565b60405162461bcd60e51b8152602060048201526011602482015270105b1c9958591e4819dc98591d585d1959607a1b6044820152606490fd5b60405162461bcd60e51b815260206004820152600f60248201526e4f6e6c7920676f7665726e616e636560881b6044820152606490fd5b34620002cd576000366003190112620002cd576020600654604051908152f35b34620002cd5760a0366003190112620002cd576004356001600160401b038111620002cd57620011cd903690600401620022aa565b6024356001600160401b038111620002cd57620011ef903690600401620022aa565b916044356001600160401b038111620002cd5762001212903690600401620022dd565b90926064356001600160401b038111620002cd5762001236903690600401620022dd565b6084969196356001600160401b038111620002cd576200125b903690600401620022dd565b94909660038710158062001a59575b1562001a2157838703620019e9576000805b858210620019bd57606491500362001978576200129a878b62002a80565b620019405760035498620012ae8a6200248d565b6003556040519384610af28101106001600160401b03610af287011117620017d657620012f66200130d938695610af262002fef88396080610af2880181815201916200249d565b91610af2850183036020610af2870101526200249d565b69d3c21bcecceda10000006040610af284010152306060610af28401015203906000f0918215620007b55760005b8581106200186f57506004805460405163a9059cbb60e01b81526001600160a01b039182169281019290925269152d02c7e14af680000060248301526020908290604490829060009089165af18015620007b5576200184b575b50600854600654906007549260405194856101808101106001600160401b0361018088011117620017d65761018086016040526001600160a01b038716865260006020870152620013e68962002549565b620013f560405191826200234a565b898152602081018d36908c60051b0111620002cd578d9081905b8c60051b83018210620018305750505060408701526200142f8162002549565b916200143f60405193846200234a565b8183526020830190368360051b820111620002cd5780915b8360051b820183106200181f575050505060608501526080840152600060a0840152600060c084015260e083015261010082015260006101208201526001610140820152620014a68362002561565b620014b560405191826200234a565b8381523684870111620002cd5783866020830137600060208583010152610160820152856000526002602052604060002060018060a01b038251166001600160601b0360a01b9081835416178255600182019060018060a01b036020850151169082541617905560408201518051906001600160401b038211620017d657600160401b8211620017d65760206002840191620015578484548186558562002596565b0190600052602060002060005b83811062001801575050505060608201518051906001600160401b038211620017d657600160401b8211620017d65760206003840191620015ab8484548186558562002596565b0190600052602060002060005b838110620017ec5750505050600a610160916080840151600482015560a0840151600582015560c0840151600682015560e084015160078201556101008401516008820155600981016101208501511515815460ff61ff00610140890151151560081b1692169061ffff191617179055019101518051906001600160401b038211620017d65781906200164c84546200230d565b601f811162001794575b50602090601f831160011462001729576000926200171d575b50508160011b916000199060031b1c19161790555b604051928060408501604086525260608401969060005b818110620016f4575050509180620016e9877f47ecacfe099cdcc3f82438cdf40de92c2dd3a8aae2d208cce5a7f689da0820d89488968460209b038b86015260018060a01b0316976200249d565b0390a3604051908152f35b909197602080600192838060a01b036200170e8d6200227a565b1681520199019291016200169b565b0151905089806200166f565b6000858152602081209350601f198516905b8181106200177b575090846001959493921062001761575b505050811b01905562001684565b015160001960f88460031b161c1916905589808062001753565b929360206001819287860151815501950193016200173b565b620017c490856000526020600020601f850160051c81019160208610620017cb575b601f0160051c01906200257d565b8a62001656565b9091508190620017b6565b634e487b7160e01b600052604160045260246000fd5b600190602084519401938184015501620015b8565b82516001600160a01b03168183015560209092019160010162001564565b823581526020928301920162001457565b602080916200183f846200227a565b8152019101906200140f565b620018679060203d602011620007ad576200079c81836200234a565b508862001395565b6200187c818484620024f3565b3590693f870857a3e0e38000008083810204830362000d3457606492602091620018ec620018b7620018b18f8d8891620024f3565b6200251a565b60405163a9059cbb60e01b81526001600160a01b03909116600482015291909202949094046024850152839081906044820190565b038160006001600160a01b038a165af1918215620007b55762001916926200191c575b506200248d565b6200133b565b620019389060203d602011620007ad576200079c81836200234a565b508a6200190f565b60405162461bcd60e51b815260206004820152601060248201526f4475706c6963617465206167656e747360801b6044820152606490fd5b60405162461bcd60e51b815260206004820152601760248201527f57656967687473206d7573742073756d20746f203130300000000000000000006044820152606490fd5b620019db620019e291620019d384898b620024f3565b3590620026e0565b916200248d565b906200127c565b60405162461bcd60e51b815260206004820152601060248201526f0aecad2ced0e8e640dad2e6dac2e8c6d60831b6044820152606490fd5b60405162461bcd60e51b815260206004820152601060248201526f051756f72756d2073697a6520332d31360841b6044820152606490fd5b50600a8711156200126a565b34620002cd576040366003190112620002cd5762001a8262002263565b602480359162001a9162002460565b6001600160a01b0390811691821562001c48576003549060005b82811062001b525750506004805460405163a9059cbb60e01b81529084166001600160a01b031691810191909152602481018590529190506020826044816000875af1908115620007b5577f3ab9db27a4cdd8c603a752b62d5fbd93b4b3509fe2596708e9688e42bbac35769260209262001b30575b506004541693604051908152a3005b62001b4a90833d8111620007ad576200079c81836200234a565b508562001b21565b806000526020906002825260406000208686825416148062001c38575b62001b88575b5062001b8291506200248d565b62001aab565b600662001b979101546200263d565b6040516370a0823160e01b815230600482015292808486818b5afa908115620007b55760009162001c01575b5062001b8293508181111562001bf35762001bec9162001be39162002656565b88111562002fa1565b8762001b75565b505062001bec600062001be3565b905083813d831162001c30575b62001c1a81836200234a565b81010312620002cd5762001b8292518962001bc3565b503d62001c0e565b5060ff6009820154161562001b6f565b606490600d6040519162461bcd60e51b8352602060048401528201526c24b73b30b634b2103a37b5b2b760991b6044820152fd5b34620002cd576000366003190112620002cd57602060405169d3c21bcecceda10000008152f35b34620002cd576000366003190112620002cd576000546040516001600160a01b039091168152602090f35b34620002cd576000366003190112620002cd576004546040516001600160a01b039091168152602090f35b34620002cd576020366003190112620002cd5760043562001d1962002460565b80600052600b60205262001d34604060002054151562002f61565b80600052600b602052600060408120557feeeb89af48336259e810d6481752b8dc108428b9690f194ed79b1e24eff82ad4600080a2005b34620002cd576000366003190112620002cd57600a546040516001600160a01b039091168152602090f35b34620002cd576000366003190112620002cd5762001db362002460565b600080546001600160a01b0319811682556001600160a01b03167f8be0079c531659141344cd1fd0a4f28419497f9722a3daafe3b4186f6b6457e08280a3005b34620002cd57602080600319360112620002cd576004359062001e1562002460565b476000906000600354905b81811062001ead578560007f3ab9db27a4cdd8c603a752b62d5fbd93b4b3509fe2596708e9688e42bbac35768787878181111562001ea05762001e719162001e689162002656565b85111562002fa1565b60018060a01b0362001e92848080808986600454165af162000940620026ee565b6004541693604051908152a3005b505062001e718362001e68565b8060005260028552604060002060ff6009820154161562001edb575b5062001ed5906200248d565b62001e20565b62001ed59194600562001ef192015490620026e0565b939062001ec9565b34620002cd576000366003190112620002cd576009546040516001600160a01b039091168152602090f35b34620002cd576000366003190112620002cd576020600754604051908152f35b34620002cd576000366003190112620002cd576020600854604051908152f35b34620002cd576000366003190112620002cd576020600554604051908152f35b34620002cd576000366003190112620002cd5760206040516103e88152f35b34620002cd5762001fb4366200228f565b9162001fbf62002460565b80156200205d57821562002021576200201c7f32d60f87a8e7c956ea4994f82f397127ae8f6aae0cd420eb4ff8e9b9a58f2feb93826006558360075580600855604051938493846040919493926060820195825260208201520152565b0390a1005b60405162461bcd60e51b8152602060048201526014602482015273496e76616c69642074617267657420726169736560601b6044820152606490fd5b60405162461bcd60e51b8152602060048201526012602482015271496e76616c6964206261736520707269636560701b6044820152606490fd5b34620002cd576000366003190112620002cd5760206040516117708152f35b34620002cd576000366003190112620002cd576020604051620151808152f35b34620002cd57602080600319360112620002cd5760043590620020f862002460565b81600052600b815262002112604060002054151562002f61565b81600052600b815260406000205442106200219257600290826000528181526200214a60ff60096040600020015460081c16620025bc565b82600052600b81526000604081205552600960406000200161ff001981541690557f0b939016779c3297135b58aed6d343cf103faf818ea07a7c5f87b03a9bd87297600080a2005b6064906040519062461bcd60e51b825260048201526014602482015273151a5b595b1bd8dac81b9bdd08195e1c1a5c995960621b6044820152fd5b34620002cd576020366003190112620002cd57620021ea62002263565b620021f462002460565b6001600160a01b03166200220a8115156200280d565b6001600160601b0360a01b6004541617600455600080f35b34620002cd57602062000db062002239366200224c565b90600052600283526040600020620029ba565b6040906003190112620002cd576004359060243590565b600435906001600160a01b0382168203620002cd57565b35906001600160a01b0382168203620002cd57565b6060906003190112620002cd57600435906024359060443590565b9181601f84011215620002cd578235916001600160401b038311620002cd576020808501948460051b010111620002cd57565b9181601f84011215620002cd578235916001600160401b038311620002cd5760208381860195010111620002cd57565b90600182811c921680156200233f575b60208310146200232957565b634e487b7160e01b600052602260045260246000fd5b91607f16916200231d565b90601f801991011681019081106001600160401b03821117620017d657604052565b906040519182600082549262002382846200230d565b908184526001948581169081600014620023f95750600114620023b2575b5050620023b0925003836200234a565b565b9093915060005260209081600020936000915b818310620023e0575050620023b093508201013880620023a0565b85548884018501529485019487945091830191620023c5565b915050620023b094506020925060ff191682840152151560051b8201013880620023a0565b919082519283825260005b8481106200244b575050826000602080949584010152601f8019910116010190565b60208183018101518483018201520162002429565b6000546001600160a01b031633036200247557565b60405163118cdaa760e01b8152336004820152602490fd5b600019811462000d345760010190565b908060209392818452848401376000828201840152601f01601f1916010190565b8181029291811591840414171562000d3457565b8115620024dd570490565b634e487b7160e01b600052601260045260246000fd5b9190811015620025045760051b0190565b634e487b7160e01b600052603260045260246000fd5b356001600160a01b0381168103620002cd5790565b90816020910312620002cd57518015158103620002cd5790565b6001600160401b038111620017d65760051b60200190565b6001600160401b038111620017d657601f01601f191660200190565b81811062002589575050565b600081556001016200257d565b91818110620025a457505050565b620023b092600052602060002091820191016200257d565b15620025c457565b60405162461bcd60e51b81526020600482015260116024820152704d61726b6574206e6f742061637469766560781b6044820152606490fd5b156200260557565b60405162461bcd60e51b815260206004820152601060248201526f13585c9ad95d0819dc98591d585d195960821b6044820152606490fd5b90697f0e10af47c1c700000091820391821162000d3457565b9190820391821162000d3457565b156200266c57565b60405162461bcd60e51b815260206004820152600b60248201526a5a65726f20746f6b656e7360a81b6044820152606490fd5b15620026a757565b60405162461bcd60e51b815260206004820152601160248201527014db1a5c1c1859d948195e18d959591959607a1b6044820152606490fd5b9190820180921162000d3457565b3d156200271e573d90620027028262002561565b916200271260405193846200234a565b82523d6000602084013e565b606090565b156200272b57565b60405162461bcd60e51b8152602060048201526013602482015272119959481d1c985b9cd9995c8819985a5b1959606a1b6044820152606490fd5b60026001541462002778576002600155565b604051633ee5aeb560e01b8152600490fd5b156200279257565b60405162461bcd60e51b8152602060048201526013602482015272115512081d1c985b9cd9995c8819985a5b1959606a1b6044820152606490fd5b60005260026020526200280a6040600020670de0b6b3a7640000620028026007830154926006600882015491015490620024be565b0490620026e0565b90565b156200281557565b60405162461bcd60e51b815260206004820152600c60248201526b5a65726f206164647265737360a01b6044820152606490fd5b90600682015491620028678262002861858462002a36565b620026e0565b9060086007820154910154928315620029435750670de0b6b3a7640000918281029080820484149015171562000d3457620028a38280620024be565b906001600160ff1b038516850362000d3457620028d4918462002802620028ce938860011b620024be565b6200296e565b60009190818111156200293a5790620028ed9162002656565b828102928184041490151715620029265750906200290b91620024d2565b908082116200291b575050600090565b6200280a9162002656565b634e487b7160e01b81526011600452602490fd5b50509250505090565b9350915050670de0b6b3a76400009182810292818404149015171562000d34576200280a91620024d2565b908115620029b457600180830180841162000d3457811c90835b8483106200299557505050565b90919350620029aa84620028618184620024d2565b821c919062002988565b60009150565b90600682015490818111620029f85782620029ea620029f192620029e3856200280a9762002a36565b9462002656565b9062002a36565b9062002656565b60405162461bcd60e51b8152602060048201526016602482015275139bdd08195b9bdd59da081d1bdad95b9cc81cdbdb1960521b6044820152606490fd5b6f01812f9cf7920e2b66973e2000000000620028026200280a9362002a7a816008670de0b6b3a764000062002a708360078a0154620024be565b04960154620024be565b620024be565b9060005b81811062002a9457505050600090565b600180820180831162000d34575b83811062002abd57505062002ab7906200248d565b62002a84565b62002ad1620018b1848688959698620024f3565b6001600160a01b038062002aeb620018b1858988620024f3565b1691161462002b095762002aff906200248d565b9391909362002aa2565b505091505090565b90816020910312620002cd57516001600160a01b0381168103620002cd5790565b600081815260026020908152604080832060098101805460ff19166001179055600a549094926001600160a01b03929091831690811562002f2857838754169262002b8160068901546200263d565b6005890154835163095ea7b360e01b81526001600160a01b0395909516600480870191909152602486018390529196919483816044818d8b5af1801562002f1e5762002efc575b5081600a541696605f810297818904605f148215171562002ee957605f8302838104605f148415171562002ed65784885416610e1042019182421162002ec35788519b8c9563f305d71960e01b87528c8c8801526024870152606490046044860152606490046064850152608484015260a4830152815a9360c492606095f193841562002eb957889589978a9662002e6c575b50600a54855163c45a015560e01b815290841685828581845afa91821562002e3e5784929187918e9362002e48575b5088516315ab88c960e31b815295869182905afa93841562002e3e578693929186918e9662002e13575b509060449291818a51978896879563e6a4390560e01b8752860152166024840152165afa98891562002e08579862002d7a575b50957fb36a04a2c9a3056c7a9f5e17478807203703d117b4cf8b69eff077901ab6a6848362002d759594937f089607a52cca0d390ff7d0ad4e97545804dcc41418e1daee9ec3948596fec944996001859c9d019c169b8c6001600160601b0360a01b8254161790558b8251918a8352820152a251938493846040919493926060820195825260208201520152565b0390a3565b87985083837f089607a52cca0d390ff7d0ad4e97545804dcc41418e1daee9ec3948596fec9449993600162002def7fb36a04a2c9a3056c7a9f5e17478807203703d117b4cf8b69eff077901ab6a6849562002d759a99983d861162002e00575b62002de681836200234a565b81019062002b11565b9c5050939950935093945062002ce7565b503d62002dda565b8451903d90823e3d90fd5b6044939291965062002e3490863d881162002e005762002de681836200234a565b9590919262002cb4565b87513d8e823e3d90fd5b62002e64919350823d841162002e005762002de681836200234a565b913862002c8a565b9650945095506060853d821162002eb0575b8162002e8d606093836200234a565b8101031262002eac578451958383870151960151969596943862002c5b565b8780fd5b3d915062002e7e565b83513d8a823e3d90fd5b634e487b7160e01b8e5260118a5260248efd5b634e487b7160e01b8c526011885260248cfd5b634e487b7160e01b8b526011875260248bfd5b62002f1690843d8611620007ad576200079c81836200234a565b503862002bc8565b85513d8c823e3d90fd5b93957fb36a04a2c9a3056c7a9f5e17478807203703d117b4cf8b69eff077901ab6a68495929350600591500154918351928352820152a2565b1562002f6957565b60405162461bcd60e51b815260206004820152601060248201526f4e6f2070656e64696e6720706175736560801b6044820152606490fd5b1562002fa957565b60405162461bcd60e51b815260206004820152601b60248201527f416d6f756e74206578636565647320776974686472617761626c6500000000006044820152606490fdfe60406080815234620003b55762000af2803803806200001e81620003ba565b9283398101608082820312620003b55781516001600160401b039290838111620003b5578262000050918301620003e0565b6020928383015190858211620003b5576200006d918401620003e0565b906060868401519301519460018060a01b038616809603620003b5578151818111620002b5576003908154906001948583811c93168015620003aa575b8984101462000394578190601f938481116200033e575b508990848311600114620002d757600092620002cb575b505060001982851b1c191690851b1782555b8451928311620002b55760049485548581811c91168015620002aa575b8982101462000295578281116200024a575b5087918411600114620001df57938394918492600095620001d3575b50501b92600019911b1c19161781555b8315620001bc5760025490828201809211620001a7575060025560008381528083528481208054830190558451918252917fddf252ad1be2c89b69c2b068fc378daa952ba7f163c4a11628f55a4df523b3ef91a35161069f9081620004538239f35b601190634e487b7160e01b6000525260246000fd5b602490600086519163ec442f0560e01b8352820152fd5b01519350388062000135565b9190601f198416928660005284896000209460005b8b8983831062000232575050501062000217575b50505050811b01815562000145565b01519060f884600019921b161c191690553880808062000208565b868601518955909701969485019488935001620001f4565b86600052886000208380870160051c8201928b88106200028b575b0160051c019086905b8281106200027e57505062000119565b600081550186906200026e565b9250819262000265565b602287634e487b7160e01b6000525260246000fd5b90607f169062000107565b634e487b7160e01b600052604160045260246000fd5b015190503880620000d8565b90879350601f19831691866000528b6000209260005b8d8282106200032757505084116200030e575b505050811b018255620000ea565b015160001983871b60f8161c1916905538808062000300565b8385015186558b97909501949384019301620002ed565b90915084600052896000208480850160051c8201928c86106200038a575b918991869594930160051c01915b8281106200037a575050620000c1565b600081558594508991016200036a565b925081926200035c565b634e487b7160e01b600052602260045260246000fd5b92607f1692620000aa565b600080fd5b6040519190601f01601f191682016001600160401b03811183821017620002b557604052565b919080601f84011215620003b55782516001600160401b038111620002b55760209062000416601f8201601f19168301620003ba565b92818452828287010111620003b55760005b8181106200043e57508260009394955001015290565b85810183015184820184015282016200042856fe608060408181526004918236101561001657600080fd5b600092833560e01c91826306fdde031461043957508163095ea7b31461038b57816318160ddd1461036c57816323b872dd14610275578163313ce5671461025957816370a082311461022257816395d89b411461010357508063a9059cbb146100d35763dd62ed3e1461008857600080fd5b346100cf57806003193601126100cf57806020926100a461055a565b6100ac610575565b6001600160a01b0391821683526001865283832091168252845220549051908152f35b5080fd5b50346100cf57806003193601126100cf576020906100fc6100f261055a565b602435903361058b565b5160018152f35b8383346100cf57816003193601126100cf57805190828454600181811c90808316928315610218575b6020938484108114610205578388529081156101e95750600114610194575b505050829003601f01601f191682019267ffffffffffffffff841183851017610181575082918261017d925282610511565b0390f35b634e487b7160e01b815260418552602490fd5b8787529192508591837f8a35acfbc15ff81a39ae7d344fd709f28e8600b4aa8c65c6b64bfe7fe36bd19b5b8385106101d5575050505083010185808061014b565b8054888601830152930192849082016101bf565b60ff1916878501525050151560051b840101905085808061014b565b634e487b7160e01b895260228a52602489fd5b91607f169161012c565b5050346100cf5760203660031901126100cf5760209181906001600160a01b0361024a61055a565b16815280845220549051908152f35b5050346100cf57816003193601126100cf576020905160128152f35b905082346103695760603660031901126103695761029161055a565b610299610575565b916044359360018060a01b0383168083526001602052868320338452602052868320549160001983106102d5575b6020886100fc89898961058b565b86831061033d57811561032657331561030f575082526001602090815286832033845281529186902090859003905582906100fc876102c7565b8751634a1406b160e11b8152908101849052602490fd5b875163e602df0560e01b8152908101849052602490fd5b8751637dc7a0d960e11b8152339181019182526020820193909352604081018790528291506060010390fd5b80fd5b5050346100cf57816003193601126100cf576020906002549051908152f35b9050346104355781600319360112610435576103a561055a565b60243590331561041e576001600160a01b031691821561040757508083602095338152600187528181208582528752205582519081527f8c5be1e5ebec7d5bd14f71427d1e84f3dd0314c0f7b2291e5b200ac8c7c3b925843392a35160018152f35b8351634a1406b160e11b8152908101859052602490fd5b835163e602df0560e01b8152808401869052602490fd5b8280fd5b8490843461043557826003193601126104355782600354600181811c90808316928315610507575b6020938484108114610205578388529081156101e957506001146104b157505050829003601f01601f191682019267ffffffffffffffff841183851017610181575082918261017d925282610511565b600387529192508591837fc2575a0e9e593c00f959f8c92f12db2869c3395a3b0502d05e2516446f71f85b5b8385106104f3575050505083010185808061014b565b8054888601830152930192849082016104dd565b91607f1691610461565b6020808252825181830181905290939260005b82811061054657505060409293506000838284010152601f8019910116010190565b818101860151848201604001528501610524565b600435906001600160a01b038216820361057057565b600080fd5b602435906001600160a01b038216820361057057565b916001600160a01b0380841692831561065057169283156106375760009083825281602052604082205490838210610605575091604082827fddf252ad1be2c89b69c2b068fc378daa952ba7f163c4a11628f55a4df523b3ef958760209652828652038282205586815220818154019055604051908152a3565b60405163391434e360e21b81526001600160a01b03919091166004820152602481019190915260448101839052606490fd5b60405163ec442f0560e01b815260006004820152602490fd5b604051634b637e8f60e11b815260006004820152602490fdfea264697066735822122046067658aecb52bbddf243a1fd1ccbf3c77f8e228bd23c9b488a5d852c7d14b064736f6c63430008140033a2646970667358221220f2445007b2a58f9a22ebc0ffcd5a12b031c20232dd05e7296b7b472aae69ab4f64736f6c63430008140033",
  "devdoc": {
    "details": "Deploys markets with bonding curve mechanics for Headless Markets Protocol Token Distribution: - 30% to founding quorum (split by contribution weights) - 60% bonded to curve (available for purchase) - 10% to protocol treasury",
    "errors": {
      "OwnableInvalidOwner(address)": [
        {
          "details": "The owner is not a valid owner account. (eg. `address(0)`)"
        }
      ],
      "OwnableUnauthorizedAccount(address)": [
        {
          "details": "The caller account is not authorized to perform an operation."
        }
      ],
      "ReentrancyGuardReentrantCall()": [
        {
          "details": "Unauthorized reentrant call."
        }
      ]
    },
    "kind": "dev",
    "methods": {
      "buy(uint256,uint256)": {
        "details": "Buy tokens from the bonding curve with slippage protection",
        "params": {
          "marketId": "The market to buy from",
          "minTokensOut": "Minimum tokens to receive (slippage protection against MEV)"
        }
      },
      "calculatePurchaseReturn(uint256,uint256)": {
        "details": "Calculate tokens received for ETH amount"
      },
      "calculateSaleReturn(uint256,uint256)": {
        "details": "Calculate ETH received for token amount"
      },
      "cancelPause(uint256)": {
        "details": "Cancel a pending pause request",
        "params": {
          "marketId": "The market to cancel pause for"
        }
      },
      "createMarket(address[],uint256[],string,string,string)": {
        "details": "Create a new market with bonding curve",
        "params": {
          "name": "Token name",
          "quorumAgents": "Array of agent addresses in the quorum",
          "symbol": "Token symbol",
          "thesis": "Business thesis for the market",
          "weights": "Contribution weights for each agent (must sum to 100)"
        }
      },
      "emergencyPause(uint256)": {
        "details": "Emergency pause - bypasses timelock (use only for critical security issues)",
        "params": {
          "marketId": "The market to pause immediately"
        }
      },
      "emergencyWithdrawETH(uint256)": {
        "details": "Emergency withdraw ETH stuck in contract Can only withdraw excess ETH (not reserved for markets) SECURITY FIX (HM-NEW-01): Protects funds regardless of pause status",
        "params": {
          "amount": "Amount of ETH to withdraw"
        }
      },
      "emergencyWithdrawTokens(address,uint256)": {
        "details": "Emergency withdraw tokens stuck in contract Cannot withdraw tokens that belong to market curves SECURITY FIX (HM-NEW-01): Protects tokens regardless of pause status",
        "params": {
          "amount": "Amount to withdraw",
          "token": "Token address to withdraw"
        }
      },
      "executePause(uint256)": {
        "details": "Execute a pending pause after timelock expires",
        "params": {
          "marketId": "The market to pause"
        }
      },
      "forceGraduate(uint256)": {
        "details": "Force graduate a market before target is reached Can only be called by governance contract",
        "params": {
          "marketId": "The market to graduate"
        }
      },
      "getCurrentPrice(uint256)": {
        "details": "Get current token price for a market"
      },
      "getMarket(uint256)": {
        "details": "Get market details"
      },
      "owner()": {
        "details": "Returns the address of the current owner."
      },
      "renounceOwnership()": {
        "details": "Leaves the contract without owner. It will not be possible to call `onlyOwner` functions. Can only be called by the current owner. NOTE: Renouncing ownership will leave the contract without an owner, thereby disabling any functionality that is only available to the owner."
      },
      "requestPause(uint256)": {
        "details": "Request to pause a market (starts timelock)",
        "params": {
          "marketId": "The market to pause"
        }
      },
      "rescueGraduatedMarketFunds(uint256)": {
        "details": "Force withdraw all funds from a graduated market to treasury Use only if graduation DEX integration failed",
        "params": {
          "marketId": "The graduated market ID"
        }
      },
      "sell(uint256,uint256,uint256)": {
        "details": "Sell tokens back to the bonding curve with slippage protection",
        "params": {
          "marketId": "The market to sell to",
          "minEthOut": "Minimum ETH to receive (slippage protection against MEV)",
          "tokenAmount": "Amount of tokens to sell"
        }
      },
      "setGovernance(address)": {
        "details": "Set governance contract address (for permission checks)",
        "params": {
          "_governance": "The governance contract address"
        }
      },
      "setUniswapRouter(address)": {
        "details": "Set the Uniswap V2 Router address for DEX graduation",
        "params": {
          "_router": "The Uniswap V2 Router address"
        }
      },
      "transferOwnership(address)": {
        "details": "Transfers ownership of the contract to a new account (`newOwner`). Can only be called by the current owner."
      },
      "unpause(uint256)": {
        "details": "Unpause a market (no timelock needed for unpause)",
        "params": {
          "marketId": "The market to unpause"
        }
      }
    },
    "title": "BondingCurveFactory",
    "version": 1
  },
  "userdoc": {
    "kind": "user",
    "methods": {},
    "version": 1
  },
  "storageLayout": {
    "storage": [
      {
        "astId": 8,
        "contract": "contracts/BondingCurveFactory.sol:BondingCurveFactory",
        "label": "_owner",
        "offset": 0,
        "slot": "0",
        "type": "t_address"
      },
      {
        "astId": 944,
        "contract": "contracts/BondingCurveFactory.sol:BondingCurveFactory",
        "label": "_status",
        "offset": 0,
        "slot": "1",
        "type": "t_uint256"
      },
      {
        "astId": 1070,
        "contract": "contracts/BondingCurveFactory.sol:BondingCurveFactory",
        "label": "markets",
        "offset": 0,
        "slot": "2",
        "type": "t_mapping(t_uint256,t_struct(Market)1065_storage)"
      },
      {
        "astId": 1072,
        "contract": "contracts/BondingCurveFactory.sol:BondingCurveFactory",
        "label": "marketCount",
        "offset": 0,
        "slot": "3",
        "type": "t_uint256"
      },
      {
        "astId": 1074,
        "contract": "contracts/BondingCurveFactory.sol:BondingCurveFactory",
        "label": "protocolTreasury",
        "offset": 0,
        "slot": "4",
        "type": "t_address"
      },
      {
        "astId": 1077,
        "contract": "contracts/BondingCurveFactory.sol:BondingCurveFactory",
        "label": "protocolFeeBps",
        "offset": 0,
        "slot": "5",
        "type": "t_uint256"
      },
      {
        "astId": 1105,
        "contract": "contracts/BondingCurveFactory.sol:BondingCurveFactory",
        "label": "defaultBasePrice",
        "offset": 0,
        "slot": "6",
        "type": "t_uint256"
      },
      {
        "astId": 1108,
        "contract": "contracts/BondingCurveFactory.sol:BondingCurveFactory",
        "label": "defaultSlope",
        "offset": 0,
        "slot": "7",
        "type": "t_uint256"
      },
      {
        "astId": 1111,
        "contract": "contracts/BondingCurveFactory.sol:BondingCurveFactory",
        "label": "defaultTargetRaise",
        "offset": 0,
        "slot": "8",
        "type": "t_uint256"
      },
      {
        "astId": 1113,
        "contract": "contracts/BondingCurveFactory.sol:BondingCurveFactory",
        "label": "governance",
        "offset": 0,
        "slot": "9",
        "type": "t_address"
      },
      {
        "astId": 1116,
        "contract": "contracts/BondingCurveFactory.sol:BondingCurveFactory",
        "label": "uniswapRouter",
        "offset": 0,
        "slot": "10",
        "type": "t_contract(IUniswapV2Router02)3128"
      },
      {
        "astId": 1120,
        "contract": "contracts/BondingCurveFactory.sol:BondingCurveFactory",
        "label": "pendingPause",
        "offset": 0,
        "slot": "11",
        "type": "t_mapping(t_uint256,t_uint256)"
      }
    ],
    "types": {
      "t_address": {
        "encoding": "inplace",
        "label": "address",
        "numberOfBytes": "20"
      },
      "t_array(t_address)dyn_storage": {
        "base": "t_address",
        "encoding": "dynamic_array",
        "label": "address[]",
        "numberOfBytes": "32"
      },
      "t_array(t_uint256)dyn_storage": {
        "base": "t_uint256",
        "encoding": "dynamic_array",
        "label": "uint256[]",
        "numberOfBytes": "32"
      },
      "t_bool": {
        "encoding": "inplace",
        "label": "bool",
        "numberOfBytes": "1"
      },
      "t_contract(IUniswapV2Router02)3128": {
        "encoding": "inplace",
        "label": "contract IUniswapV2Router02",
        "numberOfBytes": "20"
      },
      "t_mapping(t_uint256,t_struct(Market)1065_storage)": {
        "encoding": "mapping",
        "key": "t_uint256",
        "label": "mapping(uint256 => struct BondingCurveFactory.Market)",
        "numberOfBytes": "32",
        "value": "t_struct(Market)1065_storage"
      },
      "t_mapping(t_uint256,t_uint256)": {
        "encoding": "mapping",
        "key": "t_uint256",
        "label": "mapping(uint256 => uint256)",
        "numberOfBytes": "32",
        "value": "t_uint256"
      },
      "t_string_storage": {
        "encoding": "bytes",
        "label": "string",
        "numberOfBytes": "32"
      },
      "t_struct(Market)1065_storage": {
        "encoding": "inplace",
        "label": "struct BondingCurveFactory.Market",
        "members": [
          {
            "astId": 1040,
            "contract": "contracts/BondingCurveFactory.sol:BondingCurveFactory",
            "label": "tokenAddress",
            "offset": 0,
            "slot": "0",
            "type": "t_address"
          },
          {
            "astId": 1042,
            "contract": "contracts/BondingCurveFactory.sol:BondingCurveFactory",
            "label": "lpPair",
            "offset": 0,
            "slot": "1",
            "type": "t_address"
          },
          {
            "astId": 1045,
            "contract": "contracts/BondingCurveFactory.sol:BondingCurveFactory",
            "label": "quorumAgents",
            "offset": 0,
            "slot": "2",
            "type": "t_array(t_address)dyn_storage"
          },
          {
            "astId": 1048,
            "contract": "contracts/BondingCurveFactory.sol:BondingCurveFactory",
            "label": "agentWeights",
            "offset": 0,
            "slot": "3",
            "type": "t_array(t_uint256)dyn_storage"
          },
          {
            "astId": 1050,
            "contract": "contracts/BondingCurveFactory.sol:BondingCurveFactory",
            "label": "targetRaise",
            "offset": 0,
            "slot": "4",
            "type": "t_uint256"
          },
          {
            "astId": 1052,
            "contract": "contracts/BondingCurveFactory.sol:BondingCurveFactory",
            "label": "currentRaised",
            "offset": 0,
            "slot": "5",
            "type": "t_uint256"
          },
          {
            "astId": 1054,
            "contract": "contracts/BondingCurveFactory.sol:BondingCurveFactory",
            "label": "tokensSold",
            "offset": 0,
            "slot": "6",
            "type": "t_uint256"
          },
          {
            "astId": 1056,
            "contract": "contracts/BondingCurveFactory.sol:BondingCurveFactory",
            "label": "basePrice",
            "offset": 0,
            "slot": "7",
            "type": "t_uint256"
          },
          {
            "astId": 1058,
            "contract": "contracts/BondingCurveFactory.sol:BondingCurveFactory",
            "label": "slope",
            "offset": 0,
            "slot": "8",
            "type": "t_uint256"
          },
          {
            "astId": 1060,
            "contract": "contracts/BondingCurveFactory.sol:BondingCurveFactory",
            "label": "graduated",
            "offset": 0,
            "slot": "9",
            "type": "t_bool"
          },
          {
            "astId": 1062,
            "contract": "contracts/BondingCurveFactory.sol:BondingCurveFactory",
            "label": "active",
            "offset": 1,
            "slot": "9",
            "type": "t_bool"
          },
          {
            "astId": 1064,
            "contract": "contracts/BondingCurveFactory.sol:BondingCurveFactory",
            "label": "thesis",
            "offset": 0,
            "slot": "10",
            "type": "t_string_storage"
          }
        ],
        "numberOfBytes": "352"
      },
      "t_uint256": {
        "encoding": "inplace",
        "label": "uint256",
        "numberOfBytes": "32"
      }
    }
  }
}