{
  "address": "0x2aA29fe97aeB0a079B241fd80BFAf64dc2273dF1",
  "abi": [
    {
      "inputs": [
        {
          "internalType": "address",
          "name": "_treasury",
          "type": "address"
        }
      ],
      "stateMutability": "nonpayable",
      "type": "constructor"
    },
    {
      "inputs": [
        {
          "internalType": "address",
          "name": "owner",
          "type": "address"
        }
      ],
      "name": "OwnableInvalidOwner",
      "type": "error"
    },
    {
      "inputs": [
        {
          "internalType": "address",
          "name": "account",
          "type": "address"
        }
      ],
      "name": "OwnableUnauthorizedAccount",
      "type": "error"
    },
    {
      "inputs": [],
      "name": "ReentrancyGuardReentrantCall",
      "type": "error"
    },
    {
      "anonymous": false,
      "inputs": [
        {
          "indexed": false,
          "internalType": "uint256",
          "name": "basePrice",
          "type": "uint256"
        },
        {
          "indexed": false,
          "internalType": "uint256",
          "name": "slope",
          "type": "uint256"
        },
        {
          "indexed": false,
          "internalType": "uint256",
          "name": "targetRaise",
          "type": "uint256"
        }
      ],
      "name": "DefaultParametersUpdated",
      "type": "event"
    },
    {
      "anonymous": false,
      "inputs": [
        {
          "indexed": true,
          "internalType": "address",
          "name": "newGovernance",
          "type": "address"
        }
      ],
      "name": "GovernanceUpdated",
      "type": "event"
    },
    {
      "anonymous": false,
      "inputs": [
        {
          "indexed": true,
          "internalType": "uint256",
          "name": "marketId",
          "type": "uint256"
        },
        {
          "indexed": true,
          "internalType": "address",
          "name": "tokenAddress",
          "type": "address"
        },
        {
          "indexed": false,
          "internalType": "address[]",
          "name": "quorumAgents",
          "type": "address[]"
        },
        {
          "indexed": false,
          "internalType": "string",
          "name": "thesis",
          "type": "string"
        }
      ],
      "name": "MarketCreated",
      "type": "event"
    },
    {
      "anonymous": false,
      "inputs": [
        {
          "indexed": true,
          "internalType": "uint256",
          "name": "marketId",
          "type": "uint256"
        },
        {
          "indexed": false,
          "internalType": "uint256",
          "name": "totalRaised",
          "type": "uint256"
        },
        {
          "indexed": false,
          "internalType": "address",
          "name": "lpPair",
          "type": "address"
        }
      ],
      "name": "MarketGraduated",
      "type": "event"
    },
    {
      "anonymous": false,
      "inputs": [
        {
          "indexed": true,
          "internalType": "uint256",
          "name": "marketId",
          "type": "uint256"
        }
      ],
      "name": "MarketPaused",
      "type": "event"
    },
    {
      "anonymous": false,
      "inputs": [
        {
          "indexed": true,
          "internalType": "uint256",
          "name": "marketId",
          "type": "uint256"
        }
      ],
      "name": "MarketUnpaused",
      "type": "event"
    },
    {
      "anonymous": false,
      "inputs": [
        {
          "indexed": true,
          "internalType": "address",
          "name": "previousOwner",
          "type": "address"
        },
        {
          "indexed": true,
          "internalType": "address",
          "name": "newOwner",
          "type": "address"
        }
      ],
      "name": "OwnershipTransferred",
      "type": "event"
    },
    {
      "anonymous": false,
      "inputs": [
        {
          "indexed": true,
          "internalType": "uint256",
          "name": "marketId",
          "type": "uint256"
        }
      ],
      "name": "PauseCancelled",
      "type": "event"
    },
    {
      "anonymous": false,
      "inputs": [
        {
          "indexed": true,
          "internalType": "uint256",
          "name": "marketId",
          "type": "uint256"
        },
        {
          "indexed": false,
          "internalType": "uint256",
          "name": "executeTime",
          "type": "uint256"
        }
      ],
      "name": "PauseRequested",
      "type": "event"
    },
    {
      "anonymous": false,
      "inputs": [
        {
          "indexed": true,
          "internalType": "uint256",
          "name": "marketId",
          "type": "uint256"
        },
        {
          "indexed": false,
          "internalType": "uint256",
          "name": "feeAmount",
          "type": "uint256"
        }
      ],
      "name": "ProtocolFeeCollected",
      "type": "event"
    },
    {
      "anonymous": false,
      "inputs": [
        {
          "indexed": true,
          "internalType": "uint256",
          "name": "marketId",
          "type": "uint256"
        },
        {
          "indexed": true,
          "internalType": "address",
          "name": "buyer",
          "type": "address"
        },
        {
          "indexed": false,
          "internalType": "uint256",
          "name": "ethAmount",
          "type": "uint256"
        },
        {
          "indexed": false,
          "internalType": "uint256",
          "name": "tokenAmount",
          "type": "uint256"
        },
        {
          "indexed": false,
          "internalType": "uint256",
          "name": "newPrice",
          "type": "uint256"
        }
      ],
      "name": "TokensPurchased",
      "type": "event"
    },
    {
      "anonymous": false,
      "inputs": [
        {
          "indexed": true,
          "internalType": "uint256",
          "name": "marketId",
          "type": "uint256"
        },
        {
          "indexed": true,
          "internalType": "address",
          "name": "seller",
          "type": "address"
        },
        {
          "indexed": false,
          "internalType": "uint256",
          "name": "tokenAmount",
          "type": "uint256"
        },
        {
          "indexed": false,
          "internalType": "uint256",
          "name": "ethAmount",
          "type": "uint256"
        }
      ],
      "name": "TokensSold",
      "type": "event"
    },
    {
      "inputs": [],
      "name": "BPS_DENOMINATOR",
      "outputs": [
        {
          "internalType": "uint256",
          "name": "",
          "type": "uint256"
        }
      ],
      "stateMutability": "view",
      "type": "function"
    },
    {
      "inputs": [],
      "name": "CURVE_ALLOCATION_BPS",
      "outputs": [
        {
          "internalType": "uint256",
          "name": "",
          "type": "uint256"
        }
      ],
      "stateMutability": "view",
      "type": "function"
    },
    {
      "inputs": [],
      "name": "MIN_PURCHASE",
      "outputs": [
        {
          "internalType": "uint256",
          "name": "",
          "type": "uint256"
        }
      ],
      "stateMutability": "view",
      "type": "function"
    },
    {
      "inputs": [],
      "name": "PAUSE_DELAY",
      "outputs": [
        {
          "internalType": "uint256",
          "name": "",
          "type": "uint256"
        }
      ],
      "stateMutability": "view",
      "type": "function"
    },
    {
      "inputs": [],
      "name": "QUORUM_ALLOCATION_BPS",
      "outputs": [
        {
          "internalType": "uint256",
          "name": "",
          "type": "uint256"
        }
      ],
      "stateMutability": "view",
      "type": "function"
    },
    {
      "inputs": [],
      "name": "TOTAL_SUPPLY",
      "outputs": [
        {
          "internalType": "uint256",
          "name": "",
          "type": "uint256"
        }
      ],
      "stateMutability": "view",
      "type": "function"
    },
    {
      "inputs": [],
      "name": "TREASURY_ALLOCATION_BPS",
      "outputs": [
        {
          "internalType": "uint256",
          "name": "",
          "type": "uint256"
        }
      ],
      "stateMutability": "view",
      "type": "function"
    },
    {
      "inputs": [
        {
          "internalType": "uint256",
          "name": "marketId",
          "type": "uint256"
        },
        {
          "internalType": "uint256",
          "name": "minTokensOut",
          "type": "uint256"
        }
      ],
      "name": "buy",
      "outputs": [],
      "stateMutability": "payable",
      "type": "function"
    },
    {
      "inputs": [
        {
          "internalType": "uint256",
          "name": "marketId",
          "type": "uint256"
        },
        {
          "internalType": "uint256",
          "name": "ethAmount",
          "type": "uint256"
        }
      ],
      "name": "calculatePurchaseReturn",
      "outputs": [
        {
          "internalType": "uint256",
          "name": "",
          "type": "uint256"
        }
      ],
      "stateMutability": "view",
      "type": "function"
    },
    {
      "inputs": [
        {
          "internalType": "uint256",
          "name": "marketId",
          "type": "uint256"
        },
        {
          "internalType": "uint256",
          "name": "tokenAmount",
          "type": "uint256"
        }
      ],
      "name": "calculateSaleReturn",
      "outputs": [
        {
          "internalType": "uint256",
          "name": "",
          "type": "uint256"
        }
      ],
      "stateMutability": "view",
      "type": "function"
    },
    {
      "inputs": [
        {
          "internalType": "uint256",
          "name": "marketId",
          "type": "uint256"
        }
      ],
      "name": "cancelPause",
      "outputs": [],
      "stateMutability": "nonpayable",
      "type": "function"
    },
    {
      "inputs": [
        {
          "internalType": "address[]",
          "name": "quorumAgents",
          "type": "address[]"
        },
        {
          "internalType": "uint256[]",
          "name": "weights",
          "type": "uint256[]"
        },
        {
          "internalType": "string",
          "name": "name",
          "type": "string"
        },
        {
          "internalType": "string",
          "name": "symbol",
          "type": "string"
        },
        {
          "internalType": "string",
          "name": "thesis",
          "type": "string"
        }
      ],
      "name": "createMarket",
      "outputs": [
        {
          "internalType": "uint256",
          "name": "marketId",
          "type": "uint256"
        }
      ],
      "stateMutability": "nonpayable",
      "type": "function"
    },
    {
      "inputs": [],
      "name": "defaultBasePrice",
      "outputs": [
        {
          "internalType": "uint256",
          "name": "",
          "type": "uint256"
        }
      ],
      "stateMutability": "view",
      "type": "function"
    },
    {
      "inputs": [],
      "name": "defaultSlope",
      "outputs": [
        {
          "internalType": "uint256",
          "name": "",
          "type": "uint256"
        }
      ],
      "stateMutability": "view",
      "type": "function"
    },
    {
      "inputs": [],
      "name": "defaultTargetRaise",
      "outputs": [
        {
          "internalType": "uint256",
          "name": "",
          "type": "uint256"
        }
      ],
      "stateMutability": "view",
      "type": "function"
    },
    {
      "inputs": [
        {
          "internalType": "uint256",
          "name": "marketId",
          "type": "uint256"
        }
      ],
      "name": "emergencyPause",
      "outputs": [],
      "stateMutability": "nonpayable",
      "type": "function"
    },
    {
      "inputs": [
        {
          "internalType": "uint256",
          "name": "marketId",
          "type": "uint256"
        }
      ],
      "name": "executePause",
      "outputs": [],
      "stateMutability": "nonpayable",
      "type": "function"
    },
    {
      "inputs": [
        {
          "internalType": "uint256",
          "name": "marketId",
          "type": "uint256"
        }
      ],
      "name": "forceGraduate",
      "outputs": [],
      "stateMutability": "nonpayable",
      "type": "function"
    },
    {
      "inputs": [
        {
          "internalType": "uint256",
          "name": "marketId",
          "type": "uint256"
        }
      ],
      "name": "getCurrentPrice",
      "outputs": [
        {
          "internalType": "uint256",
          "name": "",
          "type": "uint256"
        }
      ],
      "stateMutability": "view",
      "type": "function"
    },
    {
      "inputs": [
        {
          "internalType": "uint256",
          "name": "marketId",
          "type": "uint256"
        }
      ],
      "name": "getMarket",
      "outputs": [
        {
          "internalType": "address",
          "name": "tokenAddress",
          "type": "address"
        },
        {
          "internalType": "address[]",
          "name": "quorumAgents",
          "type": "address[]"
        },
        {
          "internalType": "uint256[]",
          "name": "agentWeights",
          "type": "uint256[]"
        },
        {
          "internalType": "uint256",
          "name": "targetRaise",
          "type": "uint256"
        },
        {
          "internalType": "uint256",
          "name": "currentRaised",
          "type": "uint256"
        },
        {
          "internalType": "uint256",
          "name": "tokensSold",
          "type": "uint256"
        },
        {
          "internalType": "bool",
          "name": "graduated",
          "type": "bool"
        },
        {
          "internalType": "bool",
          "name": "active",
          "type": "bool"
        },
        {
          "internalType": "string",
          "name": "thesis",
          "type": "string"
        }
      ],
      "stateMutability": "view",
      "type": "function"
    },
    {
      "inputs": [],
      "name": "governance",
      "outputs": [
        {
          "internalType": "address",
          "name": "",
          "type": "address"
        }
      ],
      "stateMutability": "view",
      "type": "function"
    },
    {
      "inputs": [],
      "name": "marketCount",
      "outputs": [
        {
          "internalType": "uint256",
          "name": "",
          "type": "uint256"
        }
      ],
      "stateMutability": "view",
      "type": "function"
    },
    {
      "inputs": [
        {
          "internalType": "uint256",
          "name": "",
          "type": "uint256"
        }
      ],
      "name": "markets",
      "outputs": [
        {
          "internalType": "address",
          "name": "tokenAddress",
          "type": "address"
        },
        {
          "internalType": "uint256",
          "name": "targetRaise",
          "type": "uint256"
        },
        {
          "internalType": "uint256",
          "name": "currentRaised",
          "type": "uint256"
        },
        {
          "internalType": "uint256",
          "name": "tokensSold",
          "type": "uint256"
        },
        {
          "internalType": "uint256",
          "name": "basePrice",
          "type": "uint256"
        },
        {
          "internalType": "uint256",
          "name": "slope",
          "type": "uint256"
        },
        {
          "internalType": "bool",
          "name": "graduated",
          "type": "bool"
        },
        {
          "internalType": "bool",
          "name": "active",
          "type": "bool"
        },
        {
          "internalType": "string",
          "name": "thesis",
          "type": "string"
        }
      ],
      "stateMutability": "view",
      "type": "function"
    },
    {
      "inputs": [],
      "name": "owner",
      "outputs": [
        {
          "internalType": "address",
          "name": "",
          "type": "address"
        }
      ],
      "stateMutability": "view",
      "type": "function"
    },
    {
      "inputs": [
        {
          "internalType": "uint256",
          "name": "",
          "type": "uint256"
        }
      ],
      "name": "pendingPause",
      "outputs": [
        {
          "internalType": "uint256",
          "name": "",
          "type": "uint256"
        }
      ],
      "stateMutability": "view",
      "type": "function"
    },
    {
      "inputs": [],
      "name": "protocolFeeBps",
      "outputs": [
        {
          "internalType": "uint256",
          "name": "",
          "type": "uint256"
        }
      ],
      "stateMutability": "view",
      "type": "function"
    },
    {
      "inputs": [],
      "name": "protocolTreasury",
      "outputs": [
        {
          "internalType": "address",
          "name": "",
          "type": "address"
        }
      ],
      "stateMutability": "view",
      "type": "function"
    },
    {
      "inputs": [],
      "name": "renounceOwnership",
      "outputs": [],
      "stateMutability": "nonpayable",
      "type": "function"
    },
    {
      "inputs": [
        {
          "internalType": "uint256",
          "name": "marketId",
          "type": "uint256"
        }
      ],
      "name": "requestPause",
      "outputs": [],
      "stateMutability": "nonpayable",
      "type": "function"
    },
    {
      "inputs": [
        {
          "internalType": "uint256",
          "name": "marketId",
          "type": "uint256"
        },
        {
          "internalType": "uint256",
          "name": "tokenAmount",
          "type": "uint256"
        },
        {
          "internalType": "uint256",
          "name": "minEthOut",
          "type": "uint256"
        }
      ],
      "name": "sell",
      "outputs": [],
      "stateMutability": "nonpayable",
      "type": "function"
    },
    {
      "inputs": [
        {
          "internalType": "uint256",
          "name": "_basePrice",
          "type": "uint256"
        },
        {
          "internalType": "uint256",
          "name": "_slope",
          "type": "uint256"
        },
        {
          "internalType": "uint256",
          "name": "_targetRaise",
          "type": "uint256"
        }
      ],
      "name": "setDefaultParameters",
      "outputs": [],
      "stateMutability": "nonpayable",
      "type": "function"
    },
    {
      "inputs": [
        {
          "internalType": "address",
          "name": "_governance",
          "type": "address"
        }
      ],
      "name": "setGovernance",
      "outputs": [],
      "stateMutability": "nonpayable",
      "type": "function"
    },
    {
      "inputs": [
        {
          "internalType": "uint256",
          "name": "_feeBps",
          "type": "uint256"
        }
      ],
      "name": "setProtocolFeeBps",
      "outputs": [],
      "stateMutability": "nonpayable",
      "type": "function"
    },
    {
      "inputs": [
        {
          "internalType": "address",
          "name": "_treasury",
          "type": "address"
        }
      ],
      "name": "setProtocolTreasury",
      "outputs": [],
      "stateMutability": "nonpayable",
      "type": "function"
    },
    {
      "inputs": [
        {
          "internalType": "address",
          "name": "newOwner",
          "type": "address"
        }
      ],
      "name": "transferOwnership",
      "outputs": [],
      "stateMutability": "nonpayable",
      "type": "function"
    },
    {
      "inputs": [
        {
          "internalType": "uint256",
          "name": "marketId",
          "type": "uint256"
        }
      ],
      "name": "unpause",
      "outputs": [],
      "stateMutability": "nonpayable",
      "type": "function"
    },
    {
      "stateMutability": "payable",
      "type": "receive"
    }
  ],
  "transactionHash": "0x672fb839a3a418b8a44cf2868235f88981c8864045590d448122a4238b991230",
  "args": [
    "0x79071295C5B70b6a2e84D2c2c1de6e529c23bc89"
  ],
  "numDeployments": 1,
  "solcInputHash": "fda1f3aacb51a0a74358eacc937e4bd6",
  "bytecode": "0x6080346100f057601f62002fe838819003918201601f19168301916001600160401b038311848410176100f5578084926020946040528339810103126100f057516001600160a01b0390818116908190036100f05733156100d75760005460018060a01b0319903382821617600055604051933391167f8be0079c531659141344cd1fd0a4f28419497f9722a3daafe3b4186f6b6457e0600080a3600180556032600555655af3107a40006006556402540be400600755678ac7230489e800006008556004541617600455612edc90816200010c8239f35b604051631e4fbdf760e01b815260006004820152602490fd5b600080fd5b634e487b7160e01b600052604160045260246000fdfe608060405260043610156200001d575b36156200001b57600080fd5b005b60003560e01c8063071f85211462001b355780630c5a61f81462001ae057806316a8dc9714620019e957806320677f3414620019c957806322b9990d14620019aa57806327811d3014620018b65780632d2ec4b5146200189757806335659fb8146200187757806341489fe3146200185757806342d74cfe14620018375780635aa6e675146200180c578063715018a614620017af5780637e2ab71c146200173d578063803db96d14620017125780638da5cb5b14620016e7578063902d55a514620016c0578063998cb0f81462000e6c578063a56550791462000e4c578063a87068e51462000d7d578063ab033ea91462000d07578063ace4e8241462000cdd578063ad3fbe301462000c4e578063ad66aa721462000c20578063b1283e771462000b74578063c0417e581462000b11578063c55d0f561462000ae7578063c5df2dfa14620009ee578063d3c9727c14620007d2578063d439390c14620007ae578063d6febde8146200054f578063e1a452181462000530578063eb44fdd31462000365578063ec9790821462000345578063f2fde38b14620002b5578063f4c1fa0214620002965763fabc1cbc036200000f5734620002915760203660031901126200029157600435620001f262001d73565b80600052600260205260ff60086040600020015460081c166200025457806000526002602052600860406000200161010061ff00198254161790557f50d4ab3612146ef68ce1895760d5088eeab86987e18ffce6f2efd3d683ae6d9f600080a2005b60405162461bcd60e51b81526020600482015260156024820152744d61726b657420616c72656164792061637469766560581b6044820152606490fd5b600080fd5b346200029157600036600319011262000291576020604051610bb88152f35b34620002915760203660031901126200029157620002d262001b76565b620002dc62001d73565b6001600160a01b039081169081156200032c57600054826001600160601b0360a01b821617600055167f8be0079c531659141344cd1fd0a4f28419497f9722a3daafe3b4186f6b6457e0600080a3005b604051631e4fbdf760e01b815260006004820152602490fd5b346200029157600036600319011262000291576020600354604051908152f35b346200029157602036600319011262000291576004356000526002602052604060002060018060a01b03815416600182019060038301546004840154600585015490600886015492604051958687602083549283815201809360005260206000209260005b8181106200050d575050620003e29250038862001c5d565b60405197889081600282019a60208c54918281520190819c60005260206000209060005b818110620004f35750505091620004266009926200042d94038562001c5d565b0162001c7f565b9660405198610120808b01928b5260208b0152518091526101408901929060005b818110620004d35750505060209088830360408a0152519182815201979060005b818110620004bc578880620004b88c8b60ff8c8c8c8c6060890152608088015260a0870152818116151560c087015260081c16151560e085015283820361010085015262001d31565b0390f35b82518a526020998a0199909201916001016200046f565b82516001600160a01b03168552602094850194909201916001016200044e565b825484528694506020909301926001928301920162000406565b84546001600160a01b031683526001948501948c945060209093019201620003ca565b3462000291576000366003190112620002915760206040516127108152f35b6200055a3662001b5f565b620005646200204b565b816000526020600281526040600020916200059760ff60088501546200058f828260081c1662001eba565b161562001efb565b66038d7ea4c6800034106200077057612710620005b76005543462001dd1565b0490620005c5823462001f3b565b91620005ed620005d68487620020eb565b92620005e484151562001f49565b83101562001f84565b620005fe6004860193845462001fc5565b8355600585016200061183825462001fc5565b9055845460405163a9059cbb60e01b815233600482015260248101849052946001600160a01b039181908790604490829060009087165af19283156200076457600396899462000730575b5080620006dc575b5050507f75f77114b0b88da95841d46a17da78c266e2c6cfbeafaf83dc456ad9669c33c3620006b562000697836200206f565b60408051348152602081019690965285015233939081906060820190565b0390a3549101541115620006ca575b60018055005b620006d59062002322565b80620006c4565b6200071f6000808080857f8b33e5d3f2111dbe0069093632772b6795dfdaa7282cb1d39582c0ca4127edbb98600454165af16200071862001fd3565b5062002008565b604051908152a28486808062000664565b6200075490833d85116200075c575b6200074b818362001c5d565b81019062001e2d565b50896200065c565b503d6200073f565b6040513d6000823e3d90fd5b60405162461bcd60e51b815260048101839052601660248201527542656c6f77206d696e696d756d20707572636861736560501b6044820152606490fd5b34620002915760003660031901126200029157602060405166038d7ea4c680008152f35b346200029157620007e33662001ba2565b620007f09291926200204b565b8160005260206002815260406000206200081a60ff60088301546200058f828260081c1662001eba565b6200082785151562001f49565b6200083385826200225c565b90600481019081548311620009b057600090612710620008566005548662001dd1565b04926200087262000868858762001f3b565b9788101562001f84565b60018060a01b0394868684541660648c60405197889384926323b872dd60e01b845233600485015230602485015260448401525af19081156200076457600594620008c6926200098e575b50825462001f3b565b905501620008d687825462001f3b565b9055600080808087335af1620008eb62001fd3565b501562000953578062000930575b50506040519384528301527fb3b5018d26b7b3764106321edeb54ab6d90aee3598f78eae1da7a2ce084e9aa960403393a360018055005b6000808080936200094b95600454165af16200071862001fd3565b8480620008f9565b60405162461bcd60e51b8152600481018490526013602482015272115512081d1c985b9cd9995c8819985a5b1959606a1b6044820152606490fd5b620009a890893d8b116200075c576200074b818362001c5d565b508b620008bd565b60405162461bcd60e51b8152600481018590526016602482015275496e73756666696369656e74206c697175696469747960501b6044820152606490fd5b34620002915760208060031936011262000291576004359062000a1062001d73565b816000526002815262000a3160ff60086040600020015460081c1662001eba565b81600052600a815260406000205462000aa3576201518042019081421162000a8d577f9be0f852eebe16d2dfd0a8401f4b7a35086ca10952f979f8ed829a541594e9589183600052600a825280604060002055604051908152a2005b634e487b7160e01b600052601160045260246000fd5b6064906040519062461bcd60e51b82526004820152601760248201527f506175736520616c7265616479207265717565737465640000000000000000006044820152fd5b34620002915760203660031901126200029157602062000b096004356200206f565b604051908152f35b3462000291576020366003190112620002915760043562000b3162001d73565b6101f4811162000b4057600555005b60405162461bcd60e51b815260206004820152600c60248201526b08ccaca40e8dede40d0d2ced60a31b6044820152606490fd5b346200029157602036600319011262000291576004356000526002602052604060002060018060a01b03815416620004b860038301549260ff6004820154916005810154600682015460078301549162000bd660096008860154950162001c7f565b95604051998a998a5260208a015260408901526060880152608087015260a0860152818116151560c086015260081c16151560e08401526101208061010085015283019062001d31565b34620002915760203660031901126200029157600435600052600a6020526020604060002054604051908152f35b3462000291576020366003190112620002915760043562000c6e62001d73565b80600052600260205262000c9060ff60086040600020015460081c1662001eba565b806000526002602052600860406000200161ff00198154169055600a602052600060408120557f0b939016779c3297135b58aed6d343cf103faf818ea07a7c5f87b03a9bd87297600080a2005b346200029157602062000b0962000cf43662001b5f565b90600052600283526040600020620020eb565b3462000291576020366003190112620002915762000d2462001b76565b62000d2e62001d73565b6001600160a01b031662000d44811515620020af565b600980546001600160a01b031916821790557f9d3e522e1e47a2f6009739342b9cc7b252a1888154e843ab55ee1c81745795ab600080a2005b34620002915760203660031901126200029157600954600435906001600160a01b0316330362000e155780600052600260205260ff60086040600020015462000dcb828260081c1662001eba565b1662000ddc576200001b9062002322565b60405162461bcd60e51b8152602060048201526011602482015270105b1c9958591e4819dc98591d585d1959607a1b6044820152606490fd5b60405162461bcd60e51b815260206004820152600f60248201526e4f6e6c7920676f7665726e616e636560881b6044820152606490fd5b346200029157600036600319011262000291576020600654604051908152f35b34620002915760a036600319011262000291576004356001600160401b038111620002915762000ea190369060040162001bbd565b6024356001600160401b038111620002915762000ec390369060040162001bbd565b916044356001600160401b038111620002915762000ee690369060040162001bf0565b90926064356001600160401b038111620002915762000f0a90369060040162001bf0565b6084969196356001600160401b038111620002915762000f2f90369060040162001bf0565b949096600387101580620016b4575b156200167c5783870362001644576000805b85821062001618576064915003620015d3576003549862000f718a62001da0565b6003556040519384610af28101106001600160401b03610af287011117620014755762000fb962000fd0938695610af2620023b588396080610af28801818152019162001db0565b91610af2850183036020610af28701015262001db0565b69d3c21bcecceda10000006040610af284010152306060610af28401015203906000f0918215620007645760005b8581106200150e57506004805460405163a9059cbb60e01b81526001600160a01b039182169281019290925269152d02c7e14af680000060248301526020908290604490829060009089165af180156200076457620014ea575b50600854600654906007549260405194856101608101106001600160401b0361016088011117620014755761016086016040526001600160a01b0387168652620010a28962001e47565b620010b1604051918262001c5d565b898152602081018d36908c60051b011162000291578d9081905b8c60051b83018210620014cf575050506020870152620010eb8162001e47565b91620010fb604051938462001c5d565b8183526020830190368360051b820111620002915780915b8360051b82018310620014be57505050506040850152606084015260006080840152600060a084015260c083015260e082015260006101008201526001610120820152620011618362001e5f565b62001170604051918262001c5d565b8381523684870111620002915783866020830137600060208583010152610140820152856000526002602052604060002060018060a01b038251166001600160601b0360a01b82541617815560208201518051906001600160401b0382116200147557600160401b8211620014755760206001840191620011f78484548186558562001e94565b0190600052602060002060005b838110620014a0575050505060408201518051906001600160401b0382116200147557600160401b82116200147557602060028401916200124b8484548186558562001e94565b0190600052602060002060005b8381106200148b5750505050600961014091606084015160038201556080840151600482015560a0840151600582015560c0840151600682015560e08401516007820155600881016101008501511515815460ff61ff00610120890151151560081b1692169061ffff191617179055019101518051906001600160401b03821162001475578190620012eb845462001c20565b601f811162001433575b50602090601f8311600114620013c857600092620013bc575b50508160011b916000199060031b1c19161790555b604051928060408501604086525260608401969060005b8181106200139357505050918062001388877f47ecacfe099cdcc3f82438cdf40de92c2dd3a8aae2d208cce5a7f689da0820d89488968460209b038b86015260018060a01b03169762001db0565b0390a3604051908152f35b909197602080600192838060a01b03620013ad8d62001b8d565b1681520199019291016200133a565b0151905089806200130e565b6000858152602081209350601f198516905b8181106200141a575090846001959493921062001400575b505050811b01905562001323565b015160001960f88460031b161c19169055898080620013f2565b92936020600181928786015181550195019301620013da565b6200146390856000526020600020601f850160051c810191602086106200146a575b601f0160051c019062001e7b565b8a620012f5565b909150819062001455565b634e487b7160e01b600052604160045260246000fd5b60019060208451940193818401550162001258565b82516001600160a01b03168183015560209092019160010162001204565b823581526020928301920162001113565b60208091620014de8462001b8d565b815201910190620010cb565b620015069060203d6020116200075c576200074b818362001c5d565b508862001058565b6200151b81848462001e06565b3590693f870857a3e0e3800000918281810204810362000a8d576200154282898d62001e06565b35906001600160a01b0382168203620002915760405163a9059cbb60e01b81526001600160a01b039283166004820152606491909402046024840152602090839060449082906000908a165af19182156200076457620015a992620015af575b5062001da0565b62000ffe565b620015cb9060203d6020116200075c576200074b818362001c5d565b508a620015a2565b60405162461bcd60e51b815260206004820152601760248201527f57656967687473206d7573742073756d20746f203130300000000000000000006044820152606490fd5b620016366200163d916200162e84898b62001e06565b359062001fc5565b9162001da0565b9062000f50565b60405162461bcd60e51b815260206004820152601060248201526f0aecad2ced0e8e640dad2e6dac2e8c6d60831b6044820152606490fd5b60405162461bcd60e51b815260206004820152601060248201526f051756f72756d2073697a6520332d31360841b6044820152606490fd5b50600a87111562000f3e565b34620002915760003660031901126200029157602060405169d3c21bcecceda10000008152f35b346200029157600036600319011262000291576000546040516001600160a01b039091168152602090f35b346200029157600036600319011262000291576004546040516001600160a01b039091168152602090f35b346200029157602036600319011262000291576004356200175d62001d73565b80600052600a60205262001778604060002054151562002374565b80600052600a602052600060408120557feeeb89af48336259e810d6481752b8dc108428b9690f194ed79b1e24eff82ad4600080a2005b34620002915760003660031901126200029157620017cc62001d73565b600080546001600160a01b0319811682556001600160a01b03167f8be0079c531659141344cd1fd0a4f28419497f9722a3daafe3b4186f6b6457e08280a3005b346200029157600036600319011262000291576009546040516001600160a01b039091168152602090f35b346200029157600036600319011262000291576020600754604051908152f35b346200029157600036600319011262000291576020600854604051908152f35b346200029157600036600319011262000291576020600554604051908152f35b3462000291576000366003190112620002915760206040516103e88152f35b346200029157620018c73662001ba2565b91620018d262001d73565b80156200197057821562001934576200192f7f32d60f87a8e7c956ea4994f82f397127ae8f6aae0cd420eb4ff8e9b9a58f2feb93826006558360075580600855604051938493846040919493926060820195825260208201520152565b0390a1005b60405162461bcd60e51b8152602060048201526014602482015273496e76616c69642074617267657420726169736560601b6044820152606490fd5b60405162461bcd60e51b8152602060048201526012602482015271496e76616c6964206261736520707269636560701b6044820152606490fd5b3462000291576000366003190112620002915760206040516117708152f35b346200029157600036600319011262000291576020604051620151808152f35b34620002915760208060031936011262000291576004359062001a0b62001d73565b81600052600a815262001a25604060002054151562002374565b81600052600a8152604060002054421062001aa5576002908260005281815262001a5d60ff60086040600020015460081c1662001eba565b82600052600a81526000604081205552600860406000200161ff001981541690557f0b939016779c3297135b58aed6d343cf103faf818ea07a7c5f87b03a9bd87297600080a2005b6064906040519062461bcd60e51b825260048201526014602482015273151a5b595b1bd8dac81b9bdd08195e1c1a5c995960621b6044820152fd5b3462000291576020366003190112620002915762001afd62001b76565b62001b0762001d73565b6001600160a01b031662001b1d811515620020af565b6001600160601b0360a01b6004541617600455600080f35b346200029157602062000b0962001b4c3662001b5f565b906000526002835260406000206200225c565b604090600319011262000291576004359060243590565b600435906001600160a01b03821682036200029157565b35906001600160a01b03821682036200029157565b60609060031901126200029157600435906024359060443590565b9181601f8401121562000291578235916001600160401b03831162000291576020808501948460051b0101116200029157565b9181601f8401121562000291578235916001600160401b0383116200029157602083818601950101116200029157565b90600182811c9216801562001c52575b602083101462001c3c57565b634e487b7160e01b600052602260045260246000fd5b91607f169162001c30565b90601f801991011681019081106001600160401b038211176200147557604052565b906040519182600082549262001c958462001c20565b90818452600194858116908160001462001d0c575060011462001cc5575b505062001cc39250038362001c5d565b565b9093915060005260209081600020936000915b81831062001cf357505062001cc39350820101388062001cb3565b8554888401850152948501948794509183019162001cd8565b91505062001cc394506020925060ff191682840152151560051b820101388062001cb3565b919082519283825260005b84811062001d5e575050826000602080949584010152601f8019910116010190565b60208183018101518483018201520162001d3c565b6000546001600160a01b0316330362001d8857565b60405163118cdaa760e01b8152336004820152602490fd5b600019811462000a8d5760010190565b908060209392818452848401376000828201840152601f01601f1916010190565b8181029291811591840414171562000a8d57565b811562001df0570490565b634e487b7160e01b600052601260045260246000fd5b919081101562001e175760051b0190565b634e487b7160e01b600052603260045260246000fd5b908160209103126200029157518015158103620002915790565b6001600160401b038111620014755760051b60200190565b6001600160401b0381116200147557601f01601f191660200190565b81811062001e87575050565b6000815560010162001e7b565b9181811062001ea257505050565b62001cc3926000526020600020918201910162001e7b565b1562001ec257565b60405162461bcd60e51b81526020600482015260116024820152704d61726b6574206e6f742061637469766560781b6044820152606490fd5b1562001f0357565b60405162461bcd60e51b815260206004820152601060248201526f13585c9ad95d0819dc98591d585d195960821b6044820152606490fd5b9190820391821162000a8d57565b1562001f5157565b60405162461bcd60e51b815260206004820152600b60248201526a5a65726f20746f6b656e7360a81b6044820152606490fd5b1562001f8c57565b60405162461bcd60e51b815260206004820152601160248201527014db1a5c1c1859d948195e18d959591959607a1b6044820152606490fd5b9190820180921162000a8d57565b3d1562002003573d9062001fe78262001e5f565b9162001ff7604051938462001c5d565b82523d6000602084013e565b606090565b156200201057565b60405162461bcd60e51b8152602060048201526013602482015272119959481d1c985b9cd9995c8819985a5b1959606a1b6044820152606490fd5b6002600154146200205d576002600155565b604051633ee5aeb560e01b8152600490fd5b6000526002602052620020ac6040600020670de0b6b3a7640000620020a4600683015492600560078201549101549062001dd1565b049062001fc5565b90565b15620020b757565b60405162461bcd60e51b815260206004820152600c60248201526b5a65726f206164647265737360a01b6044820152606490fd5b906005820154916200210982620021038584620022d8565b62001fc5565b9060076006820154910154928315620021e55750670de0b6b3a7640000918281029080820484149015171562000a8d5762002145828062001dd1565b906001600160ff1b038516850362000a8d57620021769184620020a462002170938860011b62001dd1565b62002210565b6000919081811115620021dc57906200218f9162001f3b565b828102928184041490151715620021c8575090620021ad9162001de5565b90808211620021bd575050600090565b620020ac9162001f3b565b634e487b7160e01b81526011600452602490fd5b50509250505090565b9350915050670de0b6b3a76400009182810292818404149015171562000a8d57620020ac9162001de5565b9081156200225657600180830180841162000a8d57811c90835b8483106200223757505050565b909193506200224c8462002103818462001de5565b821c91906200222a565b60009150565b906005820154908181116200229a57826200228c62002293926200228585620020ac97620022d8565b9462001f3b565b90620022d8565b9062001f3b565b60405162461bcd60e51b8152602060048201526016602482015275139bdd08195b9bdd59da081d1bdad95b9cc81cdbdb1960521b6044820152606490fd5b6f01812f9cf7920e2b66973e2000000000620020a4620020ac936200231c816007670de0b6b3a7640000620023128360068a015462001dd1565b0496015462001dd1565b62001dd1565b8060005260026020527fb36a04a2c9a3056c7a9f5e17478807203703d117b4cf8b69eff077901ab6a684604060048160002060088101600160ff198254161790550154815190815260006020820152a2565b156200237c57565b60405162461bcd60e51b815260206004820152601060248201526f4e6f2070656e64696e6720706175736560801b6044820152606490fdfe60406080815234620003b55762000af2803803806200001e81620003ba565b9283398101608082820312620003b55781516001600160401b039290838111620003b5578262000050918301620003e0565b6020928383015190858211620003b5576200006d918401620003e0565b906060868401519301519460018060a01b038616809603620003b5578151818111620002b5576003908154906001948583811c93168015620003aa575b8984101462000394578190601f938481116200033e575b508990848311600114620002d757600092620002cb575b505060001982851b1c191690851b1782555b8451928311620002b55760049485548581811c91168015620002aa575b8982101462000295578281116200024a575b5087918411600114620001df57938394918492600095620001d3575b50501b92600019911b1c19161781555b8315620001bc5760025490828201809211620001a7575060025560008381528083528481208054830190558451918252917fddf252ad1be2c89b69c2b068fc378daa952ba7f163c4a11628f55a4df523b3ef91a35161069f9081620004538239f35b601190634e487b7160e01b6000525260246000fd5b602490600086519163ec442f0560e01b8352820152fd5b01519350388062000135565b9190601f198416928660005284896000209460005b8b8983831062000232575050501062000217575b50505050811b01815562000145565b01519060f884600019921b161c191690553880808062000208565b868601518955909701969485019488935001620001f4565b86600052886000208380870160051c8201928b88106200028b575b0160051c019086905b8281106200027e57505062000119565b600081550186906200026e565b9250819262000265565b602287634e487b7160e01b6000525260246000fd5b90607f169062000107565b634e487b7160e01b600052604160045260246000fd5b015190503880620000d8565b90879350601f19831691866000528b6000209260005b8d8282106200032757505084116200030e575b505050811b018255620000ea565b015160001983871b60f8161c1916905538808062000300565b8385015186558b97909501949384019301620002ed565b90915084600052896000208480850160051c8201928c86106200038a575b918991869594930160051c01915b8281106200037a575050620000c1565b600081558594508991016200036a565b925081926200035c565b634e487b7160e01b600052602260045260246000fd5b92607f1692620000aa565b600080fd5b6040519190601f01601f191682016001600160401b03811183821017620002b557604052565b919080601f84011215620003b55782516001600160401b038111620002b55760209062000416601f8201601f19168301620003ba565b92818452828287010111620003b55760005b8181106200043e57508260009394955001015290565b85810183015184820184015282016200042856fe608060408181526004918236101561001657600080fd5b600092833560e01c91826306fdde031461043957508163095ea7b31461038b57816318160ddd1461036c57816323b872dd14610275578163313ce5671461025957816370a082311461022257816395d89b411461010357508063a9059cbb146100d35763dd62ed3e1461008857600080fd5b346100cf57806003193601126100cf57806020926100a461055a565b6100ac610575565b6001600160a01b0391821683526001865283832091168252845220549051908152f35b5080fd5b50346100cf57806003193601126100cf576020906100fc6100f261055a565b602435903361058b565b5160018152f35b8383346100cf57816003193601126100cf57805190828454600181811c90808316928315610218575b6020938484108114610205578388529081156101e95750600114610194575b505050829003601f01601f191682019267ffffffffffffffff841183851017610181575082918261017d925282610511565b0390f35b634e487b7160e01b815260418552602490fd5b8787529192508591837f8a35acfbc15ff81a39ae7d344fd709f28e8600b4aa8c65c6b64bfe7fe36bd19b5b8385106101d5575050505083010185808061014b565b8054888601830152930192849082016101bf565b60ff1916878501525050151560051b840101905085808061014b565b634e487b7160e01b895260228a52602489fd5b91607f169161012c565b5050346100cf5760203660031901126100cf5760209181906001600160a01b0361024a61055a565b16815280845220549051908152f35b5050346100cf57816003193601126100cf576020905160128152f35b905082346103695760603660031901126103695761029161055a565b610299610575565b916044359360018060a01b0383168083526001602052868320338452602052868320549160001983106102d5575b6020886100fc89898961058b565b86831061033d57811561032657331561030f575082526001602090815286832033845281529186902090859003905582906100fc876102c7565b8751634a1406b160e11b8152908101849052602490fd5b875163e602df0560e01b8152908101849052602490fd5b8751637dc7a0d960e11b8152339181019182526020820193909352604081018790528291506060010390fd5b80fd5b5050346100cf57816003193601126100cf576020906002549051908152f35b9050346104355781600319360112610435576103a561055a565b60243590331561041e576001600160a01b031691821561040757508083602095338152600187528181208582528752205582519081527f8c5be1e5ebec7d5bd14f71427d1e84f3dd0314c0f7b2291e5b200ac8c7c3b925843392a35160018152f35b8351634a1406b160e11b8152908101859052602490fd5b835163e602df0560e01b8152808401869052602490fd5b8280fd5b8490843461043557826003193601126104355782600354600181811c90808316928315610507575b6020938484108114610205578388529081156101e957506001146104b157505050829003601f01601f191682019267ffffffffffffffff841183851017610181575082918261017d925282610511565b600387529192508591837fc2575a0e9e593c00f959f8c92f12db2869c3395a3b0502d05e2516446f71f85b5b8385106104f3575050505083010185808061014b565b8054888601830152930192849082016104dd565b91607f1691610461565b6020808252825181830181905290939260005b82811061054657505060409293506000838284010152601f8019910116010190565b818101860151848201604001528501610524565b600435906001600160a01b038216820361057057565b600080fd5b602435906001600160a01b038216820361057057565b916001600160a01b0380841692831561065057169283156106375760009083825281602052604082205490838210610605575091604082827fddf252ad1be2c89b69c2b068fc378daa952ba7f163c4a11628f55a4df523b3ef958760209652828652038282205586815220818154019055604051908152a3565b60405163391434e360e21b81526001600160a01b03919091166004820152602481019190915260448101839052606490fd5b60405163ec442f0560e01b815260006004820152602490fd5b604051634b637e8f60e11b815260006004820152602490fdfea2646970667358221220b5f7439b19034c771a00bbab2dbf04d095018a3f1b70ba585a887c437334f3a864736f6c63430008140033a2646970667358221220a935612516a1726c858e8838787366482fce95283e318cbca057b663fcee08e064736f6c63430008140033",
  "devdoc": {
    "details": "Deploys markets with bonding curve mechanics for Headless Markets Protocol Token Distribution: - 30% to founding quorum (split by contribution weights) - 60% bonded to curve (available for purchase) - 10% to protocol treasury",
    "errors": {
      "OwnableInvalidOwner(address)": [
        {
          "details": "The owner is not a valid owner account. (eg. `address(0)`)"
        }
      ],
      "OwnableUnauthorizedAccount(address)": [
        {
          "details": "The caller account is not authorized to perform an operation."
        }
      ],
      "ReentrancyGuardReentrantCall()": [
        {
          "details": "Unauthorized reentrant call."
        }
      ]
    },
    "kind": "dev",
    "methods": {
      "buy(uint256,uint256)": {
        "details": "Buy tokens from the bonding curve with slippage protection",
        "params": {
          "marketId": "The market to buy from",
          "minTokensOut": "Minimum tokens to receive (slippage protection against MEV)"
        }
      },
      "calculatePurchaseReturn(uint256,uint256)": {
        "details": "Calculate tokens received for ETH amount"
      },
      "calculateSaleReturn(uint256,uint256)": {
        "details": "Calculate ETH received for token amount"
      },
      "cancelPause(uint256)": {
        "details": "Cancel a pending pause request",
        "params": {
          "marketId": "The market to cancel pause for"
        }
      },
      "createMarket(address[],uint256[],string,string,string)": {
        "details": "Create a new market with bonding curve",
        "params": {
          "name": "Token name",
          "quorumAgents": "Array of agent addresses in the quorum",
          "symbol": "Token symbol",
          "thesis": "Business thesis for the market",
          "weights": "Contribution weights for each agent (must sum to 100)"
        }
      },
      "emergencyPause(uint256)": {
        "details": "Emergency pause - bypasses timelock (use only for critical security issues)",
        "params": {
          "marketId": "The market to pause immediately"
        }
      },
      "executePause(uint256)": {
        "details": "Execute a pending pause after timelock expires",
        "params": {
          "marketId": "The market to pause"
        }
      },
      "forceGraduate(uint256)": {
        "details": "Force graduate a market before target is reached Can only be called by governance contract",
        "params": {
          "marketId": "The market to graduate"
        }
      },
      "getCurrentPrice(uint256)": {
        "details": "Get current token price for a market"
      },
      "getMarket(uint256)": {
        "details": "Get market details"
      },
      "owner()": {
        "details": "Returns the address of the current owner."
      },
      "renounceOwnership()": {
        "details": "Leaves the contract without owner. It will not be possible to call `onlyOwner` functions. Can only be called by the current owner. NOTE: Renouncing ownership will leave the contract without an owner, thereby disabling any functionality that is only available to the owner."
      },
      "requestPause(uint256)": {
        "details": "Request to pause a market (starts timelock)",
        "params": {
          "marketId": "The market to pause"
        }
      },
      "sell(uint256,uint256,uint256)": {
        "details": "Sell tokens back to the bonding curve with slippage protection",
        "params": {
          "marketId": "The market to sell to",
          "minEthOut": "Minimum ETH to receive (slippage protection against MEV)",
          "tokenAmount": "Amount of tokens to sell"
        }
      },
      "setGovernance(address)": {
        "details": "Set governance contract address (for permission checks)",
        "params": {
          "_governance": "The governance contract address"
        }
      },
      "transferOwnership(address)": {
        "details": "Transfers ownership of the contract to a new account (`newOwner`). Can only be called by the current owner."
      },
      "unpause(uint256)": {
        "details": "Unpause a market (no timelock needed for unpause)",
        "params": {
          "marketId": "The market to unpause"
        }
      }
    },
    "title": "BondingCurveFactory",
    "version": 1
  },
  "userdoc": {
    "kind": "user",
    "methods": {},
    "version": 1
  },
  "storageLayout": {
    "storage": [
      {
        "astId": 8,
        "contract": "contracts/BondingCurveFactory.sol:BondingCurveFactory",
        "label": "_owner",
        "offset": 0,
        "slot": "0",
        "type": "t_address"
      },
      {
        "astId": 944,
        "contract": "contracts/BondingCurveFactory.sol:BondingCurveFactory",
        "label": "_status",
        "offset": 0,
        "slot": "1",
        "type": "t_uint256"
      },
      {
        "astId": 1067,
        "contract": "contracts/BondingCurveFactory.sol:BondingCurveFactory",
        "label": "markets",
        "offset": 0,
        "slot": "2",
        "type": "t_mapping(t_uint256,t_struct(Market)1062_storage)"
      },
      {
        "astId": 1069,
        "contract": "contracts/BondingCurveFactory.sol:BondingCurveFactory",
        "label": "marketCount",
        "offset": 0,
        "slot": "3",
        "type": "t_uint256"
      },
      {
        "astId": 1071,
        "contract": "contracts/BondingCurveFactory.sol:BondingCurveFactory",
        "label": "protocolTreasury",
        "offset": 0,
        "slot": "4",
        "type": "t_address"
      },
      {
        "astId": 1074,
        "contract": "contracts/BondingCurveFactory.sol:BondingCurveFactory",
        "label": "protocolFeeBps",
        "offset": 0,
        "slot": "5",
        "type": "t_uint256"
      },
      {
        "astId": 1102,
        "contract": "contracts/BondingCurveFactory.sol:BondingCurveFactory",
        "label": "defaultBasePrice",
        "offset": 0,
        "slot": "6",
        "type": "t_uint256"
      },
      {
        "astId": 1105,
        "contract": "contracts/BondingCurveFactory.sol:BondingCurveFactory",
        "label": "defaultSlope",
        "offset": 0,
        "slot": "7",
        "type": "t_uint256"
      },
      {
        "astId": 1108,
        "contract": "contracts/BondingCurveFactory.sol:BondingCurveFactory",
        "label": "defaultTargetRaise",
        "offset": 0,
        "slot": "8",
        "type": "t_uint256"
      },
      {
        "astId": 1110,
        "contract": "contracts/BondingCurveFactory.sol:BondingCurveFactory",
        "label": "governance",
        "offset": 0,
        "slot": "9",
        "type": "t_address"
      },
      {
        "astId": 1114,
        "contract": "contracts/BondingCurveFactory.sol:BondingCurveFactory",
        "label": "pendingPause",
        "offset": 0,
        "slot": "10",
        "type": "t_mapping(t_uint256,t_uint256)"
      }
    ],
    "types": {
      "t_address": {
        "encoding": "inplace",
        "label": "address",
        "numberOfBytes": "20"
      },
      "t_array(t_address)dyn_storage": {
        "base": "t_address",
        "encoding": "dynamic_array",
        "label": "address[]",
        "numberOfBytes": "32"
      },
      "t_array(t_uint256)dyn_storage": {
        "base": "t_uint256",
        "encoding": "dynamic_array",
        "label": "uint256[]",
        "numberOfBytes": "32"
      },
      "t_bool": {
        "encoding": "inplace",
        "label": "bool",
        "numberOfBytes": "1"
      },
      "t_mapping(t_uint256,t_struct(Market)1062_storage)": {
        "encoding": "mapping",
        "key": "t_uint256",
        "label": "mapping(uint256 => struct BondingCurveFactory.Market)",
        "numberOfBytes": "32",
        "value": "t_struct(Market)1062_storage"
      },
      "t_mapping(t_uint256,t_uint256)": {
        "encoding": "mapping",
        "key": "t_uint256",
        "label": "mapping(uint256 => uint256)",
        "numberOfBytes": "32",
        "value": "t_uint256"
      },
      "t_string_storage": {
        "encoding": "bytes",
        "label": "string",
        "numberOfBytes": "32"
      },
      "t_struct(Market)1062_storage": {
        "encoding": "inplace",
        "label": "struct BondingCurveFactory.Market",
        "members": [
          {
            "astId": 1039,
            "contract": "contracts/BondingCurveFactory.sol:BondingCurveFactory",
            "label": "tokenAddress",
            "offset": 0,
            "slot": "0",
            "type": "t_address"
          },
          {
            "astId": 1042,
            "contract": "contracts/BondingCurveFactory.sol:BondingCurveFactory",
            "label": "quorumAgents",
            "offset": 0,
            "slot": "1",
            "type": "t_array(t_address)dyn_storage"
          },
          {
            "astId": 1045,
            "contract": "contracts/BondingCurveFactory.sol:BondingCurveFactory",
            "label": "agentWeights",
            "offset": 0,
            "slot": "2",
            "type": "t_array(t_uint256)dyn_storage"
          },
          {
            "astId": 1047,
            "contract": "contracts/BondingCurveFactory.sol:BondingCurveFactory",
            "label": "targetRaise",
            "offset": 0,
            "slot": "3",
            "type": "t_uint256"
          },
          {
            "astId": 1049,
            "contract": "contracts/BondingCurveFactory.sol:BondingCurveFactory",
            "label": "currentRaised",
            "offset": 0,
            "slot": "4",
            "type": "t_uint256"
          },
          {
            "astId": 1051,
            "contract": "contracts/BondingCurveFactory.sol:BondingCurveFactory",
            "label": "tokensSold",
            "offset": 0,
            "slot": "5",
            "type": "t_uint256"
          },
          {
            "astId": 1053,
            "contract": "contracts/BondingCurveFactory.sol:BondingCurveFactory",
            "label": "basePrice",
            "offset": 0,
            "slot": "6",
            "type": "t_uint256"
          },
          {
            "astId": 1055,
            "contract": "contracts/BondingCurveFactory.sol:BondingCurveFactory",
            "label": "slope",
            "offset": 0,
            "slot": "7",
            "type": "t_uint256"
          },
          {
            "astId": 1057,
            "contract": "contracts/BondingCurveFactory.sol:BondingCurveFactory",
            "label": "graduated",
            "offset": 0,
            "slot": "8",
            "type": "t_bool"
          },
          {
            "astId": 1059,
            "contract": "contracts/BondingCurveFactory.sol:BondingCurveFactory",
            "label": "active",
            "offset": 1,
            "slot": "8",
            "type": "t_bool"
          },
          {
            "astId": 1061,
            "contract": "contracts/BondingCurveFactory.sol:BondingCurveFactory",
            "label": "thesis",
            "offset": 0,
            "slot": "9",
            "type": "t_string_storage"
          }
        ],
        "numberOfBytes": "320"
      },
      "t_uint256": {
        "encoding": "inplace",
        "label": "uint256",
        "numberOfBytes": "32"
      }
    }
  }
}