{
  "address": "0x0EC0833743e04Ca57C0dA0EA4eCb625fb7abb92B",
  "abi": [
    {
      "inputs": [
        {
          "internalType": "address",
          "name": "_factory",
          "type": "address"
        }
      ],
      "stateMutability": "nonpayable",
      "type": "constructor"
    },
    {
      "inputs": [
        {
          "internalType": "address",
          "name": "owner",
          "type": "address"
        }
      ],
      "name": "OwnableInvalidOwner",
      "type": "error"
    },
    {
      "inputs": [
        {
          "internalType": "address",
          "name": "account",
          "type": "address"
        }
      ],
      "name": "OwnableUnauthorizedAccount",
      "type": "error"
    },
    {
      "inputs": [],
      "name": "ReentrancyGuardReentrantCall",
      "type": "error"
    },
    {
      "anonymous": false,
      "inputs": [
        {
          "indexed": true,
          "internalType": "uint256",
          "name": "marketId",
          "type": "uint256"
        },
        {
          "indexed": false,
          "internalType": "uint256",
          "name": "newFeeBps",
          "type": "uint256"
        }
      ],
      "name": "FeeAdjustmentApproved",
      "type": "event"
    },
    {
      "anonymous": false,
      "inputs": [
        {
          "indexed": true,
          "internalType": "uint256",
          "name": "marketId",
          "type": "uint256"
        }
      ],
      "name": "ForceGraduationApproved",
      "type": "event"
    },
    {
      "anonymous": false,
      "inputs": [
        {
          "indexed": true,
          "internalType": "address",
          "name": "previousOwner",
          "type": "address"
        },
        {
          "indexed": true,
          "internalType": "address",
          "name": "newOwner",
          "type": "address"
        }
      ],
      "name": "OwnershipTransferred",
      "type": "event"
    },
    {
      "anonymous": false,
      "inputs": [
        {
          "indexed": true,
          "internalType": "uint256",
          "name": "proposalId",
          "type": "uint256"
        },
        {
          "indexed": true,
          "internalType": "uint256",
          "name": "marketId",
          "type": "uint256"
        },
        {
          "indexed": false,
          "internalType": "enum QuorumGovernance.ProposalType",
          "name": "pType",
          "type": "uint8"
        },
        {
          "indexed": false,
          "internalType": "address",
          "name": "proposer",
          "type": "address"
        },
        {
          "indexed": false,
          "internalType": "string",
          "name": "description",
          "type": "string"
        }
      ],
      "name": "ProposalCreated",
      "type": "event"
    },
    {
      "anonymous": false,
      "inputs": [
        {
          "indexed": true,
          "internalType": "uint256",
          "name": "proposalId",
          "type": "uint256"
        },
        {
          "indexed": false,
          "internalType": "bool",
          "name": "success",
          "type": "bool"
        }
      ],
      "name": "ProposalExecuted",
      "type": "event"
    },
    {
      "anonymous": false,
      "inputs": [
        {
          "indexed": true,
          "internalType": "uint256",
          "name": "proposalId",
          "type": "uint256"
        },
        {
          "indexed": true,
          "internalType": "address",
          "name": "agent",
          "type": "address"
        }
      ],
      "name": "QuorumApproval",
      "type": "event"
    },
    {
      "anonymous": false,
      "inputs": [
        {
          "indexed": true,
          "internalType": "uint256",
          "name": "proposalId",
          "type": "uint256"
        },
        {
          "indexed": true,
          "internalType": "uint256",
          "name": "marketId",
          "type": "uint256"
        }
      ],
      "name": "QuorumFormed",
      "type": "event"
    },
    {
      "anonymous": false,
      "inputs": [
        {
          "indexed": true,
          "internalType": "uint256",
          "name": "proposalId",
          "type": "uint256"
        },
        {
          "indexed": false,
          "internalType": "address[]",
          "name": "agents",
          "type": "address[]"
        },
        {
          "indexed": false,
          "internalType": "string",
          "name": "thesis",
          "type": "string"
        }
      ],
      "name": "QuorumProposalCreated",
      "type": "event"
    },
    {
      "anonymous": false,
      "inputs": [
        {
          "indexed": true,
          "internalType": "uint256",
          "name": "marketId",
          "type": "uint256"
        },
        {
          "indexed": true,
          "internalType": "address",
          "name": "recipient",
          "type": "address"
        },
        {
          "indexed": false,
          "internalType": "uint256",
          "name": "amount",
          "type": "uint256"
        }
      ],
      "name": "TreasurySpendApproved",
      "type": "event"
    },
    {
      "anonymous": false,
      "inputs": [
        {
          "indexed": true,
          "internalType": "uint256",
          "name": "proposalId",
          "type": "uint256"
        },
        {
          "indexed": true,
          "internalType": "address",
          "name": "voter",
          "type": "address"
        },
        {
          "indexed": false,
          "internalType": "bool",
          "name": "support",
          "type": "bool"
        },
        {
          "indexed": false,
          "internalType": "uint256",
          "name": "weight",
          "type": "uint256"
        }
      ],
      "name": "VoteCast",
      "type": "event"
    },
    {
      "inputs": [],
      "name": "EXECUTION_WINDOW",
      "outputs": [
        {
          "internalType": "uint256",
          "name": "",
          "type": "uint256"
        }
      ],
      "stateMutability": "view",
      "type": "function"
    },
    {
      "inputs": [],
      "name": "QUORUM_THRESHOLD_BPS",
      "outputs": [
        {
          "internalType": "uint256",
          "name": "",
          "type": "uint256"
        }
      ],
      "stateMutability": "view",
      "type": "function"
    },
    {
      "inputs": [],
      "name": "VOTING_PERIOD",
      "outputs": [
        {
          "internalType": "uint256",
          "name": "",
          "type": "uint256"
        }
      ],
      "stateMutability": "view",
      "type": "function"
    },
    {
      "inputs": [
        {
          "internalType": "uint256",
          "name": "",
          "type": "uint256"
        },
        {
          "internalType": "address",
          "name": "",
          "type": "address"
        }
      ],
      "name": "agentWeight",
      "outputs": [
        {
          "internalType": "uint256",
          "name": "",
          "type": "uint256"
        }
      ],
      "stateMutability": "view",
      "type": "function"
    },
    {
      "inputs": [
        {
          "internalType": "uint256",
          "name": "proposalId",
          "type": "uint256"
        }
      ],
      "name": "approveQuorum",
      "outputs": [],
      "stateMutability": "nonpayable",
      "type": "function"
    },
    {
      "inputs": [
        {
          "internalType": "uint256",
          "name": "proposalId",
          "type": "uint256"
        }
      ],
      "name": "execute",
      "outputs": [],
      "stateMutability": "nonpayable",
      "type": "function"
    },
    {
      "inputs": [],
      "name": "factory",
      "outputs": [
        {
          "internalType": "contract IBondingCurveFactory",
          "name": "",
          "type": "address"
        }
      ],
      "stateMutability": "view",
      "type": "function"
    },
    {
      "inputs": [
        {
          "internalType": "uint256",
          "name": "proposalId",
          "type": "uint256"
        }
      ],
      "name": "getProposal",
      "outputs": [
        {
          "internalType": "uint256",
          "name": "id",
          "type": "uint256"
        },
        {
          "internalType": "uint256",
          "name": "marketId",
          "type": "uint256"
        },
        {
          "internalType": "enum QuorumGovernance.ProposalType",
          "name": "pType",
          "type": "uint8"
        },
        {
          "internalType": "address",
          "name": "target",
          "type": "address"
        },
        {
          "internalType": "uint256",
          "name": "value",
          "type": "uint256"
        },
        {
          "internalType": "uint256",
          "name": "forVotes",
          "type": "uint256"
        },
        {
          "internalType": "uint256",
          "name": "againstVotes",
          "type": "uint256"
        },
        {
          "internalType": "uint256",
          "name": "deadline",
          "type": "uint256"
        },
        {
          "internalType": "enum QuorumGovernance.ProposalStatus",
          "name": "status",
          "type": "uint8"
        },
        {
          "internalType": "address",
          "name": "proposer",
          "type": "address"
        },
        {
          "internalType": "string",
          "name": "description",
          "type": "string"
        }
      ],
      "stateMutability": "view",
      "type": "function"
    },
    {
      "inputs": [
        {
          "internalType": "uint256",
          "name": "proposalId",
          "type": "uint256"
        }
      ],
      "name": "getQuorumProposal",
      "outputs": [
        {
          "internalType": "uint256",
          "name": "id",
          "type": "uint256"
        },
        {
          "internalType": "address[]",
          "name": "proposedAgents",
          "type": "address[]"
        },
        {
          "internalType": "uint256[]",
          "name": "weights",
          "type": "uint256[]"
        },
        {
          "internalType": "string",
          "name": "name",
          "type": "string"
        },
        {
          "internalType": "string",
          "name": "symbol",
          "type": "string"
        },
        {
          "internalType": "string",
          "name": "thesis",
          "type": "string"
        },
        {
          "internalType": "uint256",
          "name": "approvalCount",
          "type": "uint256"
        },
        {
          "internalType": "uint256",
          "name": "deadline",
          "type": "uint256"
        },
        {
          "internalType": "bool",
          "name": "executed",
          "type": "bool"
        }
      ],
      "stateMutability": "view",
      "type": "function"
    },
    {
      "inputs": [
        {
          "internalType": "uint256",
          "name": "",
          "type": "uint256"
        },
        {
          "internalType": "address",
          "name": "",
          "type": "address"
        }
      ],
      "name": "hasVoted",
      "outputs": [
        {
          "internalType": "bool",
          "name": "",
          "type": "bool"
        }
      ],
      "stateMutability": "view",
      "type": "function"
    },
    {
      "inputs": [
        {
          "internalType": "uint256",
          "name": "",
          "type": "uint256"
        },
        {
          "internalType": "address",
          "name": "",
          "type": "address"
        }
      ],
      "name": "isQuorumMember",
      "outputs": [
        {
          "internalType": "bool",
          "name": "",
          "type": "bool"
        }
      ],
      "stateMutability": "view",
      "type": "function"
    },
    {
      "inputs": [
        {
          "internalType": "uint256",
          "name": "",
          "type": "uint256"
        }
      ],
      "name": "marketTotalWeight",
      "outputs": [
        {
          "internalType": "uint256",
          "name": "",
          "type": "uint256"
        }
      ],
      "stateMutability": "view",
      "type": "function"
    },
    {
      "inputs": [],
      "name": "owner",
      "outputs": [
        {
          "internalType": "address",
          "name": "",
          "type": "address"
        }
      ],
      "stateMutability": "view",
      "type": "function"
    },
    {
      "inputs": [],
      "name": "proposalCount",
      "outputs": [
        {
          "internalType": "uint256",
          "name": "",
          "type": "uint256"
        }
      ],
      "stateMutability": "view",
      "type": "function"
    },
    {
      "inputs": [
        {
          "internalType": "uint256",
          "name": "",
          "type": "uint256"
        }
      ],
      "name": "proposals",
      "outputs": [
        {
          "internalType": "uint256",
          "name": "id",
          "type": "uint256"
        },
        {
          "internalType": "uint256",
          "name": "marketId",
          "type": "uint256"
        },
        {
          "internalType": "enum QuorumGovernance.ProposalType",
          "name": "pType",
          "type": "uint8"
        },
        {
          "internalType": "address",
          "name": "target",
          "type": "address"
        },
        {
          "internalType": "uint256",
          "name": "value",
          "type": "uint256"
        },
        {
          "internalType": "bytes",
          "name": "data",
          "type": "bytes"
        },
        {
          "internalType": "uint256",
          "name": "forVotes",
          "type": "uint256"
        },
        {
          "internalType": "uint256",
          "name": "againstVotes",
          "type": "uint256"
        },
        {
          "internalType": "uint256",
          "name": "deadline",
          "type": "uint256"
        },
        {
          "internalType": "enum QuorumGovernance.ProposalStatus",
          "name": "status",
          "type": "uint8"
        },
        {
          "internalType": "address",
          "name": "proposer",
          "type": "address"
        },
        {
          "internalType": "string",
          "name": "description",
          "type": "string"
        }
      ],
      "stateMutability": "view",
      "type": "function"
    },
    {
      "inputs": [
        {
          "internalType": "uint256",
          "name": "marketId",
          "type": "uint256"
        },
        {
          "internalType": "enum QuorumGovernance.ProposalType",
          "name": "pType",
          "type": "uint8"
        },
        {
          "internalType": "address",
          "name": "target",
          "type": "address"
        },
        {
          "internalType": "uint256",
          "name": "value",
          "type": "uint256"
        },
        {
          "internalType": "bytes",
          "name": "data",
          "type": "bytes"
        },
        {
          "internalType": "string",
          "name": "description",
          "type": "string"
        }
      ],
      "name": "propose",
      "outputs": [
        {
          "internalType": "uint256",
          "name": "proposalId",
          "type": "uint256"
        }
      ],
      "stateMutability": "nonpayable",
      "type": "function"
    },
    {
      "inputs": [
        {
          "internalType": "address[]",
          "name": "agents",
          "type": "address[]"
        },
        {
          "internalType": "uint256[]",
          "name": "weights",
          "type": "uint256[]"
        },
        {
          "internalType": "string",
          "name": "name",
          "type": "string"
        },
        {
          "internalType": "string",
          "name": "symbol",
          "type": "string"
        },
        {
          "internalType": "string",
          "name": "thesis",
          "type": "string"
        }
      ],
      "name": "proposeQuorum",
      "outputs": [
        {
          "internalType": "uint256",
          "name": "proposalId",
          "type": "uint256"
        }
      ],
      "stateMutability": "nonpayable",
      "type": "function"
    },
    {
      "inputs": [],
      "name": "quorumProposalCount",
      "outputs": [
        {
          "internalType": "uint256",
          "name": "",
          "type": "uint256"
        }
      ],
      "stateMutability": "view",
      "type": "function"
    },
    {
      "inputs": [
        {
          "internalType": "uint256",
          "name": "",
          "type": "uint256"
        }
      ],
      "name": "quorumProposals",
      "outputs": [
        {
          "internalType": "uint256",
          "name": "id",
          "type": "uint256"
        },
        {
          "internalType": "string",
          "name": "name",
          "type": "string"
        },
        {
          "internalType": "string",
          "name": "symbol",
          "type": "string"
        },
        {
          "internalType": "string",
          "name": "thesis",
          "type": "string"
        },
        {
          "internalType": "uint256",
          "name": "approvalCount",
          "type": "uint256"
        },
        {
          "internalType": "uint256",
          "name": "deadline",
          "type": "uint256"
        },
        {
          "internalType": "bool",
          "name": "executed",
          "type": "bool"
        }
      ],
      "stateMutability": "view",
      "type": "function"
    },
    {
      "inputs": [],
      "name": "renounceOwnership",
      "outputs": [],
      "stateMutability": "nonpayable",
      "type": "function"
    },
    {
      "inputs": [
        {
          "internalType": "address",
          "name": "_factory",
          "type": "address"
        }
      ],
      "name": "setFactory",
      "outputs": [],
      "stateMutability": "nonpayable",
      "type": "function"
    },
    {
      "inputs": [
        {
          "internalType": "address",
          "name": "newOwner",
          "type": "address"
        }
      ],
      "name": "transferOwnership",
      "outputs": [],
      "stateMutability": "nonpayable",
      "type": "function"
    },
    {
      "inputs": [
        {
          "internalType": "uint256",
          "name": "proposalId",
          "type": "uint256"
        },
        {
          "internalType": "bool",
          "name": "support",
          "type": "bool"
        }
      ],
      "name": "vote",
      "outputs": [],
      "stateMutability": "nonpayable",
      "type": "function"
    }
  ],
  "transactionHash": "0xb38793c1608e2d947d96a222ef6c8174c9b63d99d56fecfaaacaac7ad518927c",
  "args": [
    "0x2aA29fe97aeB0a079B241fd80BFAf64dc2273dF1"
  ],
  "numDeployments": 1,
  "solcInputHash": "fda1f3aacb51a0a74358eacc937e4bd6",
  "bytecode": "0x6080346100ca57601f61228b38819003918201601f19168301916001600160401b038311848410176100cf578084926020946040528339810103126100ca57516001600160a01b0390818116908190036100ca5733156100b15760005460018060a01b0319903382821617600055604051933391167f8be0079c531659141344cd1fd0a4f28419497f9722a3daafe3b4186f6b6457e0600080a36001805560025416176002556121a590816100e68239f35b604051631e4fbdf760e01b815260006004820152602490fd5b600080fd5b634e487b7160e01b600052604160045260246000fdfe608080604052600436101561001357600080fd5b60003560e01c908163013cf08b14611a265750806321c2a8b5146119fa57806322c71ef5146119b2578063355c1995146119655780633e65164a1461194757806343859632146118fa5780635bb47808146118795780636e4607bd14611252578063715018a6146111f95780638bd8be1114610d4a5780638da5cb5b14610d21578063a42133821461095b578063a6ffee811461093e578063ad463a2b14610784578063b1610d7e14610766578063b7cdc61514610748578063c45a01551461071f578063c7f758a814610641578063c9d27afe146104cc578063d432e7b3146103f5578063da35c664146103d7578063f2fde38b146103495763fe0d94c11461011c57600080fd5b34610344576020806003193601126103445760043560019060028254146103325760028255806000526003835260406000209260078401548042106102fc5762093a8081018091116102985742116102c4576008840180549460ff861660058110156102ae5761018c9015611f84565b60058101549560068201546101a18189611dca565b87840154600052600a8652604060002054906127109081810291818304149015171561029857611a0a91828102928184041490151715610298571061025e577f948f4a9cd986f1118c3fbd459f7a22b23c0693e1ca3ef06a6a8be5aa7d39cc03959697116000146102475750610223610232918760ff19855416178455611fc6565b91821561023f57600390611f6c565b6040519015158152a28055005b600290611f6c565b60ff19166002179091555060405160008152a28055005b60405162461bcd60e51b8152600481018690526012602482015271145d5bdc9d5b481b9bdd081c995858da195960721b6044820152606490fd5b634e487b7160e01b600052601160045260246000fd5b634e487b7160e01b600052602160045260246000fd5b6064906040519062461bcd60e51b825260048201526011602482015270115e1958dd5d1a5bdb88195e1c1a5c9959607a1b6044820152fd5b60405162461bcd60e51b815260048101839052600e60248201526d566f74696e67206f6e676f696e6760901b6044820152606490fd5b604051633ee5aeb560e01b8152600490fd5b600080fd5b3461034457602036600319011261034457610362611c87565b61036a611d0e565b6001600160a01b039081169081156103be57600054826bffffffffffffffffffffffff60a01b821617600055167f8be0079c531659141344cd1fd0a4f28419497f9722a3daafe3b4186f6b6457e0600080a3005b604051631e4fbdf760e01b815260006004820152602490fd5b34610344576000366003190112610344576020600454604051908152f35b3461034457602036600319011261034457600435600052600560205260406000208054604051916104348361042d8160038501611b60565b0384611bf6565b60405161044f816104488160048601611b60565b0382611bf6565b604051916104648361042d8160058501611b60565b6104b66006820154936104a860ff60086007860154950154169461049a604051998a998a5260e060208b015260e08a0190611c24565b9088820360408a0152611c24565b908682036060880152611c24565b92608085015260a0840152151560c08301520390f35b346103445760403660031901126103445760043560243590811515918281036103445781600052602060038152604060002061050d60078201544210611df8565b60ff60088201541660058110156102ae576105289015611f84565b60018101805460005260088352604060002033600052835261055160ff60406000205416611ee6565b8460005260078352604060002033600052835260ff6040600020541661060c57846000526007835260406000203360005283526040600020600160ff1982541617905554600052600982526040600020336000528252604060002054926000146105f7576005016105c3838254611dca565b90555b6040519384528301527fcbdf6214089cba887ecbf35a0b6a734589959c9763342c756bb2a80ca2bc9f6e60403393a3005b600601610605838254611dca565b90556105c6565b60405162461bcd60e51b815260048101849052600d60248201526c105b1c9958591e481d9bdd1959609a1b6044820152606490fd5b346103445760203660031901126103445760043560005260036020526040600020805461071b6009600184015493600281015490600381015460058201546006830154906007840154926106ab6008860154956106a4604051809a819301611b60565b0388611bf6565b604051998a998a5260208a01526106c860408a0160ff8816611c17565b60018060a01b03809660081c1660608a0152608089015260a088015260c087015260e08601526106ff610100860160ff8316611c64565b60081c1661012084015261016080610140850152830190611c24565b0390f35b34610344576000366003190112610344576002546040516001600160a01b039091168152602090f35b34610344576000366003190112610344576020600654604051908152f35b346103445760003660031901126103445760206040516203f4808152f35b34610344576020366003190112610344576004356000526005602052604060002080546002820191600681015490600781015460ff600883015416916040516107d4816104488160018601611e72565b604051908160208954918281520190819960005260206000209060005b818110610928575050509061080c8360059594930383611bf6565b604051916108218361042d8160038801611b60565b61085760405194610840866108398160048501611b60565b0387611bf6565b6108506040518098819301611b60565b0386611bf6565b60405198610120808b01918b5260208b0152825180915260206101408b0193019060005b8181106109095750505060209089830360408b0152519182815201989060005b8181106108f3575050506108dc92916108c0896108ce938a809c0360608c0152611c24565b9088820360808a0152611c24565b9086820360a0880152611c24565b9260c085015260e084015215156101008301520390f35b82518b5260209a8b019a9092019160010161089b565b82516001600160a01b031685526020948501949092019160010161087b565b82548452602090930192600192830192016107f1565b34610344576000366003190112610344576020604051611a0a8152f35b34610344576020366003190112610344576004356000526005602052604060002061098b60078201544210611df8565b61099c60ff60088301541615611e33565b60098101336000528060205260ff60406000205416610ce95760018201916109d46040516109ce816104488188611e72565b33612128565b15610cab57600691336000526020526040600020600160ff1982541617905501906109ff8254611d3a565b809255336004357f26a84b707d6f3594a2303b931e1a8c978880e309dc5cc6339c20b7ed48705dc9600080a35414610a3357005b6004356000526005602052604060002060088101805490610a5760ff831615611e33565b6006830154916001840192835403610c665760ff19166001179055600254604051631331961f60e31b815260a06004820152926001600160a01b03919091169083610aa560a4820185611e72565b8181036003190160248301526002830180548083526000918252602080832093019592915b818110610c4d575050509060209160031982860301604483015281600081610b26610b11610afc60039a8b8b01611b60565b83810360031901606485015260048a01611b60565b82810360031901608484015260058901611b60565b03925af1938415610c4157600094610c0d575b50600091825b8454841015610bcf57610bc3610bc991610b598688611eb8565b905490851b1c6001600160a01b031690610b768760028801611eb8565b905490861b1c918960005260086020526040600020816000526020526040600020600160ff1982541617905589600052600960205260406000209060005260205281604060002055611dca565b93611d3a565b92610b3f565b935050505081600052600a6020526040600020556004357fdc19114342e12831c08af9a2ff052d919d17aeee35c9549cf46b0e61fb08e828600080a3005b9093506020813d602011610c39575b81610c2960209383611bf6565b8101031261034457519284610b39565b3d9150610c1c565b6040513d6000823e3d90fd5b8254875260209096019588945060019283019201610aca565b60405162461bcd60e51b815260206004820152601760248201527f4e6f7420616c6c206167656e747320617070726f7665640000000000000000006044820152606490fd5b60405162461bcd60e51b81526020600482015260166024820152754e6f7420696e2070726f706f7365642071756f72756d60501b6044820152606490fd5b60405162461bcd60e51b815260206004820152601060248201526f105b1c9958591e48185c1c1c9bdd995960821b6044820152606490fd5b34610344576000366003190112610344576000546040516001600160a01b039091168152602090f35b346103445760c0366003190112610344576024600681351015610344576044356001600160a01b0381168103610344576084356001600160401b03811161034457610d99903690600401611ce1565b909160a4356001600160401b03811161034457610dba903690600401611ce1565b9290916004356000526008602052604060002033600052602052610de560ff60406000205416611ee6565b60045494610df286611d3a565b6004556203f480420142116111e45760405192836101808101106001600160401b03610180860111176111cf57610e5992610180850160405287855260043560208601528835604086015260018060a01b0316606085015260643560808501523691611f26565b60a0820152600060c0820152600060e08201526203f4804201610100820152600061012082015233610140820152610e92368484611f26565b6101608201528360005260036020526040600020815181556020820151600182015560028101604083015190600682101561113d5780546060850151610100600160a81b0360089190911b1660ff939093166001600160a81b0319909116179190911790556080820151600382015560a08201518051906001600160401b0382116111cf578190610f3382610f2a6004870154611b26565b60048701611d85565b602090601f831160011461115d57600092611152575b50508160011b916000199060031b1c19161760048201555b60c0820151600582015560e0820151600682015561010082015160078201556008810161012083015191600583101561113d57610fcf82610fa761016095600995611f6c565b6101408601518154610100600160a81b03191660089190911b610100600160a81b0316179055565b019101518051906001600160401b03821161112857918160209793611000889694610ffa8554611b26565b85611d85565b8890601f831160011461109557928261107f9361106596937f013b23f04f3ebda1dfa81d7178b32b76c4bf35879a70c233d0a9251c24bd3df9989660009261108a575b50508160011b916000199060031b1c19161790555b6040519384809435611c17565b338984015260606040840152600435966060840191611dd7565b0390a3604051908152f35b015190508c80611043565b90601f19831691846000528a6000209260005b81811061110e57509361106596937f013b23f04f3ebda1dfa81d7178b32b76c4bf35879a70c233d0a9251c24bd3df99896936001938361107f98106110f5575b505050811b019055611058565b015160001960f88460031b161c191690558c80806110e8565b8284015185558b9950600190940193928c01928c016110a8565b86634e487b7160e01b60005260416004526000fd5b87634e487b7160e01b60005260216004526000fd5b015190508880610f49565b9250600484016000526020600020906000935b601f19841685106111b4576001945083601f1981161061119b575b505050811b016004820155610f61565b015160001960f88460031b161c1916905588808061118b565b81810151835560209485019460019093019290910190611170565b87634e487b7160e01b60005260416004526000fd5b86634e487b7160e01b60005260116004526000fd5b3461034457600036600319011261034457611212611d0e565b600080546001600160a01b0319811682556001600160a01b03167f8be0079c531659141344cd1fd0a4f28419497f9722a3daafe3b4186f6b6457e08280a3005b346103445760a0366003190112610344576004356001600160401b03811161034457611282903690600401611cb1565b906024356001600160401b038111610344576112a2903690600401611cb1565b91906044356001600160401b038111610344576112c3903690600401611ce1565b90916064356001600160401b038111610344576112e4903690600401611ce1565b906084356001600160401b03811161034457611304903690600401611ce1565b95909460038a10158061186e575b1561183657888a036117fe576001600160401b038a1161165e5760405161133f60208c60051b0182611bf6565b8a815260208101368c60051b8b01116103445789905b8c60051b8b0182106117e657505061136d9033612128565b156117a1576006549861137f8a611d3a565b6006558960005260056020526040600020958a8755600160401b8c1161165e57600187016113b28d825481845583611d60565b600090815260208120908b8e5b821061177a575050506001600160401b03821161165e57600160401b821161165e5760028701906113f583835481855584611d60565b90600052602060002060005b83811061176657505050506001600160401b03811161165e578060038601926114348261142e8654611b26565b86611d85565b600090601f83116001146116fb576000926116f0575b50508160011b916000199060031b1c19161790555b6001600160401b03821161165e57819061148082610f2a6004870154611b26565b600090601f831160011461167f57600092611674575b50508160011b916000199060031b1c19161760048201555b600581016001600160401b03841161165e576114d4846114ce8354611b26565b83611d85565b836000601f82116001146115f8576000916115ed575b508460011b906000198660031b1c19161790555b600160068201556203f48042018042116102985760078201556009600882019160ff199283815416905533600052016020526001604060002091825416179055604051948060408701604088525260608601939060005b8181106115c757602087807f6b85ce33b35e42750eca978c0af6754b364ffe164d32bb0a36d43e5a56861b988b806115958c8c8c8483038a860152611dd7565b0390a26040519033817f26a84b707d6f3594a2303b931e1a8c978880e309dc5cc6339c20b7ed48705dc9600080a38152f35b909194602080600192838060a01b036115df8a611c9d565b168152019601929101611555565b9050830135886114ea565b60008381526020812092508690601f198216905b818110611643575010611629575b5050600184811b0190556114fe565b840135600019600387901b60f8161c19169055878061161a565b8784013585556001909401936020938401938993500161160c565b634e487b7160e01b600052604160045260246000fd5b013590508880611496565b909150601f198316916004850160005260206000209260005b8181106116d857509084600195949392106116be575b505050811b0160048201556114ae565b0135600019600384901b60f8161c191690558880806116ae565b91936020600181928787013581550195019201611698565b013590508b8061144a565b909150601f198316918460005260206000209260005b81811061174e5750908460019594939210611734575b505050811b01905561145f565b0135600019600384901b60f8161c191690558b8080611727565b91936020600181928787013581550195019201611711565b600190602084359401938184015501611401565b8035906001600160a01b0382168203610344578f92602060019201928186015501916113bf565b60405162461bcd60e51b815260206004820152601a60248201527f50726f706f736572206d75737420626520696e2071756f72756d0000000000006044820152606490fd5b602080916117f384611c9d565b815201910190611355565b60405162461bcd60e51b815260206004820152601060248201526f0aecad2ced0e8e640dad2e6dac2e8c6d60831b6044820152606490fd5b60405162461bcd60e51b815260206004820152601060248201526f051756f72756d2073697a6520332d31360841b6044820152606490fd5b50600a8a1115611312565b3461034457602036600319011261034457611892611c87565b61189a611d0e565b6001600160a01b031680156118c6576bffffffffffffffffffffffff60a01b6002541617600255600080f35b60405162461bcd60e51b815260206004820152600c60248201526b5a65726f206164647265737360a01b6044820152606490fd5b3461034457604036600319011261034457611913611c71565b600435600052600760205260406000209060018060a01b0316600052602052602060ff604060002054166040519015158152f35b3461034457600036600319011261034457602060405162093a808152f35b346103445760403660031901126103445761197e611c71565b600435600052600860205260406000209060018060a01b0316600052602052602060ff604060002054166040519015158152f35b34610344576040366003190112610344576119cb611c71565b600435600052600960205260406000209060018060a01b03166000526020526020604060002054604051908152f35b3461034457602036600319011261034457600435600052600a6020526020604060002054604051908152f35b3461034457602036600319011261034457600435600052600360205260406000209061071b82549160096001850154946002810154906003810154611a72856108508160048601611b60565b600582015494611aec600684015491600785015493611aa7600887015496611aa0604051809b819301611b60565b0389611bf6565b6040519b8c9b8c5260208c0152611ac460408c0160ff8916611c17565b60018060a01b03809760081c1660608c015260808b01526101808060a08c01528a0190611c24565b9560c089015260e0880152610100870152611b0e610120870160ff8316611c64565b60081c16610140850152838203610160850152611c24565b90600182811c92168015611b56575b6020831014611b4057565b634e487b7160e01b600052602260045260246000fd5b91607f1691611b35565b9060009291805491611b7183611b26565b918282526001938481169081600014611bd35750600114611b93575b50505050565b90919394506000526020928360002092846000945b838610611bbf575050505001019038808080611b8d565b805485870183015294019385908201611ba8565b9294505050602093945060ff191683830152151560051b01019038808080611b8d565b90601f801991011681019081106001600160401b0382111761165e57604052565b9060068210156102ae5752565b919082519283825260005b848110611c50575050826000602080949584010152601f8019910116010190565b602081830181015184830182015201611c2f565b9060058210156102ae5752565b602435906001600160a01b038216820361034457565b600435906001600160a01b038216820361034457565b35906001600160a01b038216820361034457565b9181601f84011215610344578235916001600160401b038311610344576020808501948460051b01011161034457565b9181601f84011215610344578235916001600160401b038311610344576020838186019501011161034457565b6000546001600160a01b03163303611d2257565b60405163118cdaa760e01b8152336004820152602490fd5b60001981146102985760010190565b818110611d54575050565b60008155600101611d49565b91818110611d6d57505050565b611d839260005260206000209182019101611d49565b565b9190601f8111611d9457505050565b611d83926000526020600020906020601f840160051c83019310611dc0575b601f0160051c0190611d49565b9091508190611db3565b9190820180921161029857565b908060209392818452848401376000828201840152601f01601f1916010190565b15611dff57565b60405162461bcd60e51b815260206004820152600c60248201526b159bdd1a5b99c8195b99195960a21b6044820152606490fd5b15611e3a57565b60405162461bcd60e51b815260206004820152601060248201526f105b1c9958591e48195e1958dd5d195960821b6044820152606490fd5b90815480825260208092019260005281600020916000905b828210611e98575050505090565b83546001600160a01b031685529384019360019384019390910190611e8a565b8054821015611ed05760005260206000200190600090565b634e487b7160e01b600052603260045260246000fd5b15611eed57565b60405162461bcd60e51b81526020600482015260116024820152702737ba1038bab7b93ab69036b2b6b132b960791b6044820152606490fd5b9291926001600160401b03821161165e5760405191611f4f601f8201601f191660200184611bf6565b829481845281830111610344578281602093846000960137010152565b9060058110156102ae5760ff80198354169116179055565b15611f8b57565b60405162461bcd60e51b815260206004820152601360248201527250726f706f73616c206e6f742061637469766560681b6044820152606490fd5b6002810190815460ff811660068110156102ae578061201b57505060010154600052600860205260406000209060018060a01b03905460081c166000526020526040600020600160ff19825416179055600190565b600193509091839182810361205d57500154600052600860205260406000209060018060a01b039060081c16600052602052604060002060ff19815416905590565b909150600281036120ad57507ff3e40a9f679d9c3b3a9ee1a92b3245585190c227f73ba084cce35d9df28889dd60206003858401549301549360405194855260018060a01b039060081c1693a390565b909150600381036120ef57507fd7b57344de03afe40981e82532ef31edaa8566d26dcb4fd65926d688c45a8e246020600384840154930154604051908152a290565b6004146120fd575050600090565b8101547f8b9ad7e2b71ee6d77ad6ce0e61bbf39d75c3e94a91f2fe163d047c62a35866e0600080a290565b60005b825181101561216757600581901b8301602001516001600160a01b0383811691161461215f5761215a90611d3a565b61212b565b505050600190565b50505060009056fea26469706673582212201da93ae0575af1192c37cd776d043042b878ff2d82cb73aae9c5edd4512e77ee64736f6c63430008140033",
  "devdoc": {
    "details": "Agent voting on treasury, membership, and market parameters Proposal Types: - AddAgent: Add new agent to quorum - RemoveAgent: Remove agent from quorum - TreasurySpend: Spend from market treasury - AdjustFees: Modify fee parameters - ForceGraduate: Force market graduation - ProposeQuorum: Propose new quorum formation (creates market)",
    "errors": {
      "OwnableInvalidOwner(address)": [
        {
          "details": "The owner is not a valid owner account. (eg. `address(0)`)"
        }
      ],
      "OwnableUnauthorizedAccount(address)": [
        {
          "details": "The caller account is not authorized to perform an operation."
        }
      ],
      "ReentrancyGuardReentrantCall()": [
        {
          "details": "Unauthorized reentrant call."
        }
      ]
    },
    "kind": "dev",
    "methods": {
      "approveQuorum(uint256)": {
        "details": "Approve quorum formation proposal",
        "params": {
          "proposalId": "The quorum proposal to approve"
        }
      },
      "execute(uint256)": {
        "details": "Execute a passed proposal"
      },
      "owner()": {
        "details": "Returns the address of the current owner."
      },
      "propose(uint256,uint8,address,uint256,bytes,string)": {
        "details": "Create a governance proposal for an existing market"
      },
      "proposeQuorum(address[],uint256[],string,string,string)": {
        "details": "Propose formation of a new quorum",
        "params": {
          "agents": "Array of agent addresses to form quorum",
          "name": "Token name for the market",
          "symbol": "Token symbol",
          "thesis": "Business thesis",
          "weights": "Contribution weights for each agent"
        }
      },
      "renounceOwnership()": {
        "details": "Leaves the contract without owner. It will not be possible to call `onlyOwner` functions. Can only be called by the current owner. NOTE: Renouncing ownership will leave the contract without an owner, thereby disabling any functionality that is only available to the owner."
      },
      "transferOwnership(address)": {
        "details": "Transfers ownership of the contract to a new account (`newOwner`). Can only be called by the current owner."
      },
      "vote(uint256,bool)": {
        "details": "Vote on a governance proposal"
      }
    },
    "title": "QuorumGovernance",
    "version": 1
  },
  "userdoc": {
    "kind": "user",
    "methods": {
      "execute(uint256)": {
        "notice": "Must be executed within EXECUTION_WINDOW after voting ends"
      }
    },
    "version": 1
  },
  "storageLayout": {
    "storage": [
      {
        "astId": 8,
        "contract": "contracts/QuorumGovernance.sol:QuorumGovernance",
        "label": "_owner",
        "offset": 0,
        "slot": "0",
        "type": "t_address"
      },
      {
        "astId": 944,
        "contract": "contracts/QuorumGovernance.sol:QuorumGovernance",
        "label": "_status",
        "offset": 0,
        "slot": "1",
        "type": "t_uint256"
      },
      {
        "astId": 2565,
        "contract": "contracts/QuorumGovernance.sol:QuorumGovernance",
        "label": "factory",
        "offset": 0,
        "slot": "2",
        "type": "t_contract(IBondingCurveFactory)2492"
      },
      {
        "astId": 2570,
        "contract": "contracts/QuorumGovernance.sol:QuorumGovernance",
        "label": "proposals",
        "offset": 0,
        "slot": "3",
        "type": "t_mapping(t_uint256,t_struct(Proposal)2537_storage)"
      },
      {
        "astId": 2572,
        "contract": "contracts/QuorumGovernance.sol:QuorumGovernance",
        "label": "proposalCount",
        "offset": 0,
        "slot": "4",
        "type": "t_uint256"
      },
      {
        "astId": 2577,
        "contract": "contracts/QuorumGovernance.sol:QuorumGovernance",
        "label": "quorumProposals",
        "offset": 0,
        "slot": "5",
        "type": "t_mapping(t_uint256,t_struct(QuorumProposal)2562_storage)"
      },
      {
        "astId": 2579,
        "contract": "contracts/QuorumGovernance.sol:QuorumGovernance",
        "label": "quorumProposalCount",
        "offset": 0,
        "slot": "6",
        "type": "t_uint256"
      },
      {
        "astId": 2585,
        "contract": "contracts/QuorumGovernance.sol:QuorumGovernance",
        "label": "hasVoted",
        "offset": 0,
        "slot": "7",
        "type": "t_mapping(t_uint256,t_mapping(t_address,t_bool))"
      },
      {
        "astId": 2591,
        "contract": "contracts/QuorumGovernance.sol:QuorumGovernance",
        "label": "isQuorumMember",
        "offset": 0,
        "slot": "8",
        "type": "t_mapping(t_uint256,t_mapping(t_address,t_bool))"
      },
      {
        "astId": 2597,
        "contract": "contracts/QuorumGovernance.sol:QuorumGovernance",
        "label": "agentWeight",
        "offset": 0,
        "slot": "9",
        "type": "t_mapping(t_uint256,t_mapping(t_address,t_uint256))"
      },
      {
        "astId": 2601,
        "contract": "contracts/QuorumGovernance.sol:QuorumGovernance",
        "label": "marketTotalWeight",
        "offset": 0,
        "slot": "10",
        "type": "t_mapping(t_uint256,t_uint256)"
      }
    ],
    "types": {
      "t_address": {
        "encoding": "inplace",
        "label": "address",
        "numberOfBytes": "20"
      },
      "t_array(t_address)dyn_storage": {
        "base": "t_address",
        "encoding": "dynamic_array",
        "label": "address[]",
        "numberOfBytes": "32"
      },
      "t_array(t_uint256)dyn_storage": {
        "base": "t_uint256",
        "encoding": "dynamic_array",
        "label": "uint256[]",
        "numberOfBytes": "32"
      },
      "t_bool": {
        "encoding": "inplace",
        "label": "bool",
        "numberOfBytes": "1"
      },
      "t_bytes_storage": {
        "encoding": "bytes",
        "label": "bytes",
        "numberOfBytes": "32"
      },
      "t_contract(IBondingCurveFactory)2492": {
        "encoding": "inplace",
        "label": "contract IBondingCurveFactory",
        "numberOfBytes": "20"
      },
      "t_enum(ProposalStatus)2510": {
        "encoding": "inplace",
        "label": "enum QuorumGovernance.ProposalStatus",
        "numberOfBytes": "1"
      },
      "t_enum(ProposalType)2504": {
        "encoding": "inplace",
        "label": "enum QuorumGovernance.ProposalType",
        "numberOfBytes": "1"
      },
      "t_mapping(t_address,t_bool)": {
        "encoding": "mapping",
        "key": "t_address",
        "label": "mapping(address => bool)",
        "numberOfBytes": "32",
        "value": "t_bool"
      },
      "t_mapping(t_address,t_uint256)": {
        "encoding": "mapping",
        "key": "t_address",
        "label": "mapping(address => uint256)",
        "numberOfBytes": "32",
        "value": "t_uint256"
      },
      "t_mapping(t_uint256,t_mapping(t_address,t_bool))": {
        "encoding": "mapping",
        "key": "t_uint256",
        "label": "mapping(uint256 => mapping(address => bool))",
        "numberOfBytes": "32",
        "value": "t_mapping(t_address,t_bool)"
      },
      "t_mapping(t_uint256,t_mapping(t_address,t_uint256))": {
        "encoding": "mapping",
        "key": "t_uint256",
        "label": "mapping(uint256 => mapping(address => uint256))",
        "numberOfBytes": "32",
        "value": "t_mapping(t_address,t_uint256)"
      },
      "t_mapping(t_uint256,t_struct(Proposal)2537_storage)": {
        "encoding": "mapping",
        "key": "t_uint256",
        "label": "mapping(uint256 => struct QuorumGovernance.Proposal)",
        "numberOfBytes": "32",
        "value": "t_struct(Proposal)2537_storage"
      },
      "t_mapping(t_uint256,t_struct(QuorumProposal)2562_storage)": {
        "encoding": "mapping",
        "key": "t_uint256",
        "label": "mapping(uint256 => struct QuorumGovernance.QuorumProposal)",
        "numberOfBytes": "32",
        "value": "t_struct(QuorumProposal)2562_storage"
      },
      "t_mapping(t_uint256,t_uint256)": {
        "encoding": "mapping",
        "key": "t_uint256",
        "label": "mapping(uint256 => uint256)",
        "numberOfBytes": "32",
        "value": "t_uint256"
      },
      "t_string_storage": {
        "encoding": "bytes",
        "label": "string",
        "numberOfBytes": "32"
      },
      "t_struct(Proposal)2537_storage": {
        "encoding": "inplace",
        "label": "struct QuorumGovernance.Proposal",
        "members": [
          {
            "astId": 2512,
            "contract": "contracts/QuorumGovernance.sol:QuorumGovernance",
            "label": "id",
            "offset": 0,
            "slot": "0",
            "type": "t_uint256"
          },
          {
            "astId": 2514,
            "contract": "contracts/QuorumGovernance.sol:QuorumGovernance",
            "label": "marketId",
            "offset": 0,
            "slot": "1",
            "type": "t_uint256"
          },
          {
            "astId": 2517,
            "contract": "contracts/QuorumGovernance.sol:QuorumGovernance",
            "label": "pType",
            "offset": 0,
            "slot": "2",
            "type": "t_enum(ProposalType)2504"
          },
          {
            "astId": 2519,
            "contract": "contracts/QuorumGovernance.sol:QuorumGovernance",
            "label": "target",
            "offset": 1,
            "slot": "2",
            "type": "t_address"
          },
          {
            "astId": 2521,
            "contract": "contracts/QuorumGovernance.sol:QuorumGovernance",
            "label": "value",
            "offset": 0,
            "slot": "3",
            "type": "t_uint256"
          },
          {
            "astId": 2523,
            "contract": "contracts/QuorumGovernance.sol:QuorumGovernance",
            "label": "data",
            "offset": 0,
            "slot": "4",
            "type": "t_bytes_storage"
          },
          {
            "astId": 2525,
            "contract": "contracts/QuorumGovernance.sol:QuorumGovernance",
            "label": "forVotes",
            "offset": 0,
            "slot": "5",
            "type": "t_uint256"
          },
          {
            "astId": 2527,
            "contract": "contracts/QuorumGovernance.sol:QuorumGovernance",
            "label": "againstVotes",
            "offset": 0,
            "slot": "6",
            "type": "t_uint256"
          },
          {
            "astId": 2529,
            "contract": "contracts/QuorumGovernance.sol:QuorumGovernance",
            "label": "deadline",
            "offset": 0,
            "slot": "7",
            "type": "t_uint256"
          },
          {
            "astId": 2532,
            "contract": "contracts/QuorumGovernance.sol:QuorumGovernance",
            "label": "status",
            "offset": 0,
            "slot": "8",
            "type": "t_enum(ProposalStatus)2510"
          },
          {
            "astId": 2534,
            "contract": "contracts/QuorumGovernance.sol:QuorumGovernance",
            "label": "proposer",
            "offset": 1,
            "slot": "8",
            "type": "t_address"
          },
          {
            "astId": 2536,
            "contract": "contracts/QuorumGovernance.sol:QuorumGovernance",
            "label": "description",
            "offset": 0,
            "slot": "9",
            "type": "t_string_storage"
          }
        ],
        "numberOfBytes": "320"
      },
      "t_struct(QuorumProposal)2562_storage": {
        "encoding": "inplace",
        "label": "struct QuorumGovernance.QuorumProposal",
        "members": [
          {
            "astId": 2539,
            "contract": "contracts/QuorumGovernance.sol:QuorumGovernance",
            "label": "id",
            "offset": 0,
            "slot": "0",
            "type": "t_uint256"
          },
          {
            "astId": 2542,
            "contract": "contracts/QuorumGovernance.sol:QuorumGovernance",
            "label": "proposedAgents",
            "offset": 0,
            "slot": "1",
            "type": "t_array(t_address)dyn_storage"
          },
          {
            "astId": 2545,
            "contract": "contracts/QuorumGovernance.sol:QuorumGovernance",
            "label": "weights",
            "offset": 0,
            "slot": "2",
            "type": "t_array(t_uint256)dyn_storage"
          },
          {
            "astId": 2547,
            "contract": "contracts/QuorumGovernance.sol:QuorumGovernance",
            "label": "name",
            "offset": 0,
            "slot": "3",
            "type": "t_string_storage"
          },
          {
            "astId": 2549,
            "contract": "contracts/QuorumGovernance.sol:QuorumGovernance",
            "label": "symbol",
            "offset": 0,
            "slot": "4",
            "type": "t_string_storage"
          },
          {
            "astId": 2551,
            "contract": "contracts/QuorumGovernance.sol:QuorumGovernance",
            "label": "thesis",
            "offset": 0,
            "slot": "5",
            "type": "t_string_storage"
          },
          {
            "astId": 2553,
            "contract": "contracts/QuorumGovernance.sol:QuorumGovernance",
            "label": "approvalCount",
            "offset": 0,
            "slot": "6",
            "type": "t_uint256"
          },
          {
            "astId": 2555,
            "contract": "contracts/QuorumGovernance.sol:QuorumGovernance",
            "label": "deadline",
            "offset": 0,
            "slot": "7",
            "type": "t_uint256"
          },
          {
            "astId": 2557,
            "contract": "contracts/QuorumGovernance.sol:QuorumGovernance",
            "label": "executed",
            "offset": 0,
            "slot": "8",
            "type": "t_bool"
          },
          {
            "astId": 2561,
            "contract": "contracts/QuorumGovernance.sol:QuorumGovernance",
            "label": "hasApproved",
            "offset": 0,
            "slot": "9",
            "type": "t_mapping(t_address,t_bool)"
          }
        ],
        "numberOfBytes": "320"
      },
      "t_uint256": {
        "encoding": "inplace",
        "label": "uint256",
        "numberOfBytes": "32"
      }
    }
  }
}